{
  "contracts/Satoshi.sol": {
    "Satoshi": {
      "abi": [
        {
          "inputs": [
            {
              "internalType": "contract IERC20",
              "name": "wbtc",
              "type": "address"
            },
            {
              "internalType": "address",
              "name": "initialOwner",
              "type": "address"
            }
          ],
          "stateMutability": "nonpayable",
          "type": "constructor"
        },
        {
          "inputs": [
            {
              "internalType": "address",
              "name": "target",
              "type": "address"
            }
          ],
          "name": "AddressEmptyCode",
          "type": "error"
        },
        {
          "inputs": [
            {
              "internalType": "address",
              "name": "account",
              "type": "address"
            }
          ],
          "name": "AddressInsufficientBalance",
          "type": "error"
        },
        {
          "inputs": [],
          "name": "ECDSAInvalidSignature",
          "type": "error"
        },
        {
          "inputs": [
            {
              "internalType": "uint256",
              "name": "length",
              "type": "uint256"
            }
          ],
          "name": "ECDSAInvalidSignatureLength",
          "type": "error"
        },
        {
          "inputs": [
            {
              "internalType": "bytes32",
              "name": "s",
              "type": "bytes32"
            }
          ],
          "name": "ECDSAInvalidSignatureS",
          "type": "error"
        },
        {
          "inputs": [
            {
              "internalType": "address",
              "name": "spender",
              "type": "address"
            },
            {
              "internalType": "uint256",
              "name": "allowance",
              "type": "uint256"
            },
            {
              "internalType": "uint256",
              "name": "needed",
              "type": "uint256"
            }
          ],
          "name": "ERC20InsufficientAllowance",
          "type": "error"
        },
        {
          "inputs": [
            {
              "internalType": "address",
              "name": "sender",
              "type": "address"
            },
            {
              "internalType": "uint256",
              "name": "balance",
              "type": "uint256"
            },
            {
              "internalType": "uint256",
              "name": "needed",
              "type": "uint256"
            }
          ],
          "name": "ERC20InsufficientBalance",
          "type": "error"
        },
        {
          "inputs": [
            {
              "internalType": "address",
              "name": "approver",
              "type": "address"
            }
          ],
          "name": "ERC20InvalidApprover",
          "type": "error"
        },
        {
          "inputs": [
            {
              "internalType": "address",
              "name": "receiver",
              "type": "address"
            }
          ],
          "name": "ERC20InvalidReceiver",
          "type": "error"
        },
        {
          "inputs": [
            {
              "internalType": "address",
              "name": "sender",
              "type": "address"
            }
          ],
          "name": "ERC20InvalidSender",
          "type": "error"
        },
        {
          "inputs": [
            {
              "internalType": "address",
              "name": "spender",
              "type": "address"
            }
          ],
          "name": "ERC20InvalidSpender",
          "type": "error"
        },
        {
          "inputs": [
            {
              "internalType": "address",
              "name": "token",
              "type": "address"
            }
          ],
          "name": "ERC20InvalidUnderlying",
          "type": "error"
        },
        {
          "inputs": [
            {
              "internalType": "uint256",
              "name": "deadline",
              "type": "uint256"
            }
          ],
          "name": "ERC2612ExpiredSignature",
          "type": "error"
        },
        {
          "inputs": [
            {
              "internalType": "address",
              "name": "signer",
              "type": "address"
            },
            {
              "internalType": "address",
              "name": "owner",
              "type": "address"
            }
          ],
          "name": "ERC2612InvalidSigner",
          "type": "error"
        },
        {
          "inputs": [],
          "name": "FailedInnerCall",
          "type": "error"
        },
        {
          "inputs": [
            {
              "internalType": "address",
              "name": "account",
              "type": "address"
            },
            {
              "internalType": "uint256",
              "name": "currentNonce",
              "type": "uint256"
            }
          ],
          "name": "InvalidAccountNonce",
          "type": "error"
        },
        {
          "inputs": [],
          "name": "InvalidFee",
          "type": "error"
        },
        {
          "inputs": [],
          "name": "InvalidShortString",
          "type": "error"
        },
        {
          "inputs": [
            {
              "internalType": "address",
              "name": "owner",
              "type": "address"
            }
          ],
          "name": "OwnableInvalidOwner",
          "type": "error"
        },
        {
          "inputs": [
            {
              "internalType": "address",
              "name": "account",
              "type": "address"
            }
          ],
          "name": "OwnableUnauthorizedAccount",
          "type": "error"
        },
        {
          "inputs": [
            {
              "internalType": "address",
              "name": "token",
              "type": "address"
            }
          ],
          "name": "SafeERC20FailedOperation",
          "type": "error"
        },
        {
          "inputs": [
            {
              "internalType": "string",
              "name": "str",
              "type": "string"
            }
          ],
          "name": "StringTooLong",
          "type": "error"
        },
        {
          "anonymous": false,
          "inputs": [
            {
              "indexed": true,
              "internalType": "address",
              "name": "owner",
              "type": "address"
            },
            {
              "indexed": true,
              "internalType": "address",
              "name": "spender",
              "type": "address"
            },
            {
              "indexed": false,
              "internalType": "uint256",
              "name": "value",
              "type": "uint256"
            }
          ],
          "name": "Approval",
          "type": "event"
        },
        {
          "anonymous": false,
          "inputs": [],
          "name": "EIP712DomainChanged",
          "type": "event"
        },
        {
          "anonymous": false,
          "inputs": [
            {
              "indexed": true,
              "internalType": "address",
              "name": "previousOwner",
              "type": "address"
            },
            {
              "indexed": true,
              "internalType": "address",
              "name": "newOwner",
              "type": "address"
            }
          ],
          "name": "OwnershipTransferred",
          "type": "event"
        },
        {
          "anonymous": false,
          "inputs": [
            {
              "indexed": false,
              "internalType": "uint16",
              "name": "feeBpsNew",
              "type": "uint16"
            },
            {
              "indexed": false,
              "internalType": "uint16",
              "name": "feeMinNew",
              "type": "uint16"
            },
            {
              "indexed": false,
              "internalType": "uint16",
              "name": "feeMaxNew",
              "type": "uint16"
            }
          ],
          "name": "SetFees",
          "type": "event"
        },
        {
          "anonymous": false,
          "inputs": [
            {
              "indexed": true,
              "internalType": "address",
              "name": "from",
              "type": "address"
            },
            {
              "indexed": true,
              "internalType": "address",
              "name": "to",
              "type": "address"
            },
            {
              "indexed": false,
              "internalType": "uint256",
              "name": "value",
              "type": "uint256"
            }
          ],
          "name": "Transfer",
          "type": "event"
        },
        {
          "inputs": [],
          "name": "DOMAIN_SEPARATOR",
          "outputs": [
            {
              "internalType": "bytes32",
              "name": "",
              "type": "bytes32"
            }
          ],
          "stateMutability": "view",
          "type": "function"
        },
        {
          "inputs": [
            {
              "internalType": "address",
              "name": "owner",
              "type": "address"
            },
            {
              "internalType": "address",
              "name": "spender",
              "type": "address"
            }
          ],
          "name": "allowance",
          "outputs": [
            {
              "internalType": "uint256",
              "name": "",
              "type": "uint256"
            }
          ],
          "stateMutability": "view",
          "type": "function"
        },
        {
          "inputs": [
            {
              "internalType": "address",
              "name": "spender",
              "type": "address"
            },
            {
              "internalType": "uint256",
              "name": "value",
              "type": "uint256"
            }
          ],
          "name": "approve",
          "outputs": [
            {
              "internalType": "bool",
              "name": "",
              "type": "bool"
            }
          ],
          "stateMutability": "nonpayable",
          "type": "function"
        },
        {
          "inputs": [
            {
              "internalType": "address",
              "name": "account",
              "type": "address"
            }
          ],
          "name": "balanceOf",
          "outputs": [
            {
              "internalType": "uint256",
              "name": "",
              "type": "uint256"
            }
          ],
          "stateMutability": "view",
          "type": "function"
        },
        {
          "inputs": [],
          "name": "decimals",
          "outputs": [
            {
              "internalType": "uint8",
              "name": "",
              "type": "uint8"
            }
          ],
          "stateMutability": "view",
          "type": "function"
        },
        {
          "inputs": [
            {
              "internalType": "address",
              "name": "account",
              "type": "address"
            },
            {
              "internalType": "uint256",
              "name": "value",
              "type": "uint256"
            }
          ],
          "name": "depositFor",
          "outputs": [
            {
              "internalType": "bool",
              "name": "",
              "type": "bool"
            }
          ],
          "stateMutability": "nonpayable",
          "type": "function"
        },
        {
          "inputs": [],
          "name": "eip712Domain",
          "outputs": [
            {
              "internalType": "bytes1",
              "name": "fields",
              "type": "bytes1"
            },
            {
              "internalType": "string",
              "name": "name",
              "type": "string"
            },
            {
              "internalType": "string",
              "name": "version",
              "type": "string"
            },
            {
              "internalType": "uint256",
              "name": "chainId",
              "type": "uint256"
            },
            {
              "internalType": "address",
              "name": "verifyingContract",
              "type": "address"
            },
            {
              "internalType": "bytes32",
              "name": "salt",
              "type": "bytes32"
            },
            {
              "internalType": "uint256[]",
              "name": "extensions",
              "type": "uint256[]"
            }
          ],
          "stateMutability": "view",
          "type": "function"
        },
        {
          "inputs": [],
          "name": "feeBps",
          "outputs": [
            {
              "internalType": "uint16",
              "name": "",
              "type": "uint16"
            }
          ],
          "stateMutability": "view",
          "type": "function"
        },
        {
          "inputs": [],
          "name": "feeMax",
          "outputs": [
            {
              "internalType": "uint16",
              "name": "",
              "type": "uint16"
            }
          ],
          "stateMutability": "view",
          "type": "function"
        },
        {
          "inputs": [],
          "name": "feeMin",
          "outputs": [
            {
              "internalType": "uint16",
              "name": "",
              "type": "uint16"
            }
          ],
          "stateMutability": "view",
          "type": "function"
        },
        {
          "inputs": [],
          "name": "name",
          "outputs": [
            {
              "internalType": "string",
              "name": "",
              "type": "string"
            }
          ],
          "stateMutability": "view",
          "type": "function"
        },
        {
          "inputs": [
            {
              "internalType": "address",
              "name": "owner",
              "type": "address"
            }
          ],
          "name": "nonces",
          "outputs": [
            {
              "internalType": "uint256",
              "name": "",
              "type": "uint256"
            }
          ],
          "stateMutability": "view",
          "type": "function"
        },
        {
          "inputs": [],
          "name": "owner",
          "outputs": [
            {
              "internalType": "address",
              "name": "",
              "type": "address"
            }
          ],
          "stateMutability": "view",
          "type": "function"
        },
        {
          "inputs": [
            {
              "internalType": "address",
              "name": "owner",
              "type": "address"
            },
            {
              "internalType": "address",
              "name": "spender",
              "type": "address"
            },
            {
              "internalType": "uint256",
              "name": "value",
              "type": "uint256"
            },
            {
              "internalType": "uint256",
              "name": "deadline",
              "type": "uint256"
            },
            {
              "internalType": "uint8",
              "name": "v",
              "type": "uint8"
            },
            {
              "internalType": "bytes32",
              "name": "r",
              "type": "bytes32"
            },
            {
              "internalType": "bytes32",
              "name": "s",
              "type": "bytes32"
            }
          ],
          "name": "permit",
          "outputs": [],
          "stateMutability": "nonpayable",
          "type": "function"
        },
        {
          "inputs": [
            {
              "internalType": "address",
              "name": "to",
              "type": "address"
            }
          ],
          "name": "recover",
          "outputs": [
            {
              "internalType": "uint256",
              "name": "",
              "type": "uint256"
            }
          ],
          "stateMutability": "nonpayable",
          "type": "function"
        },
        {
          "inputs": [],
          "name": "renounceOwnership",
          "outputs": [],
          "stateMutability": "nonpayable",
          "type": "function"
        },
        {
          "inputs": [
            {
              "internalType": "uint16",
              "name": "feeBpsNew",
              "type": "uint16"
            },
            {
              "internalType": "uint16",
              "name": "feeMinNew",
              "type": "uint16"
            },
            {
              "internalType": "uint16",
              "name": "feeMaxNew",
              "type": "uint16"
            }
          ],
          "name": "setFees",
          "outputs": [],
          "stateMutability": "nonpayable",
          "type": "function"
        },
        {
          "inputs": [],
          "name": "symbol",
          "outputs": [
            {
              "internalType": "string",
              "name": "",
              "type": "string"
            }
          ],
          "stateMutability": "view",
          "type": "function"
        },
        {
          "inputs": [],
          "name": "totalSupply",
          "outputs": [
            {
              "internalType": "uint256",
              "name": "",
              "type": "uint256"
            }
          ],
          "stateMutability": "view",
          "type": "function"
        },
        {
          "inputs": [
            {
              "internalType": "address",
              "name": "to",
              "type": "address"
            },
            {
              "internalType": "uint256",
              "name": "value",
              "type": "uint256"
            }
          ],
          "name": "transfer",
          "outputs": [
            {
              "internalType": "bool",
              "name": "",
              "type": "bool"
            }
          ],
          "stateMutability": "nonpayable",
          "type": "function"
        },
        {
          "inputs": [
            {
              "internalType": "address",
              "name": "from",
              "type": "address"
            },
            {
              "internalType": "address",
              "name": "to",
              "type": "address"
            },
            {
              "internalType": "uint256",
              "name": "value",
              "type": "uint256"
            }
          ],
          "name": "transferFrom",
          "outputs": [
            {
              "internalType": "bool",
              "name": "",
              "type": "bool"
            }
          ],
          "stateMutability": "nonpayable",
          "type": "function"
        },
        {
          "inputs": [
            {
              "internalType": "address",
              "name": "newOwner",
              "type": "address"
            }
          ],
          "name": "transferOwnership",
          "outputs": [],
          "stateMutability": "nonpayable",
          "type": "function"
        },
        {
          "inputs": [],
          "name": "underlying",
          "outputs": [
            {
              "internalType": "contract IERC20",
              "name": "",
              "type": "address"
            }
          ],
          "stateMutability": "view",
          "type": "function"
        },
        {
          "inputs": [
            {
              "internalType": "address",
              "name": "account",
              "type": "address"
            },
            {
              "internalType": "uint256",
              "name": "value",
              "type": "uint256"
            }
          ],
          "name": "withdrawTo",
          "outputs": [
            {
              "internalType": "bool",
              "name": "",
              "type": "bool"
            }
          ],
          "stateMutability": "nonpayable",
          "type": "function"
        }
      ],
      "evm": {
        "bytecode": {
          "linkReferences": {},
          "object": "610180604052348015610010575f80fd5b5060405161252138038061252183398101604081905261002f916102c8565b80604051806040016040528060078152602001665361746f73686960c81b81525080604051806040016040528060018152602001603160f81b81525085604051806040016040528060078152602001665361746f73686960c81b815250604051806040016040528060048152602001635341544f60e01b81525081600390816100b89190610398565b5060046100c58282610398565b5050306001600160a01b0383160390506100f95760405163438d6fe360e01b81523060048201526024015b60405180910390fd5b6001600160a01b03166080526101108260056101f1565b6101405261011f8160066101f1565b61016052815160208084019190912061010052815190820120610120524660c0526101ad6101005161012051604080517f8b73c3c69bb8fe3d512ecc4cf759cc79239f7b179b0ffacaa9a75d522b39400f60208201529081019290925260608201524660808201523060a08201525f9060c00160405160208183030381529060405280519060200120905090565b60a05250503060e052506001600160a01b0381166101e057604051631e4fbdf760e01b81525f60048201526024016100f0565b6101e981610223565b5050506104af565b5f60208351101561020c5761020583610274565b905061021d565b816102178482610398565b5060ff90505b92915050565b600880546001600160a01b038381166001600160a01b0319831681179093556040519116919082907f8be0079c531659141344cd1fd0a4f28419497f9722a3daafe3b4186f6b6457e0905f90a35050565b5f80829050601f8151111561029e578260405163305a27a960e01b81526004016100f09190610457565b80516102a98261048c565b179392505050565b6001600160a01b03811681146102c5575f80fd5b50565b5f80604083850312156102d9575f80fd5b82516102e4816102b1565b60208401519092506102f5816102b1565b809150509250929050565b634e487b7160e01b5f52604160045260245ffd5b600181811c9082168061032857607f821691505b60208210810361034657634e487b7160e01b5f52602260045260245ffd5b50919050565b601f82111561039357805f5260205f20601f840160051c810160208510156103715750805b601f840160051c820191505b81811015610390575f815560010161037d565b50505b505050565b81516001600160401b038111156103b1576103b1610300565b6103c5816103bf8454610314565b8461034c565b602080601f8311600181146103f8575f84156103e15750858301515b5f19600386901b1c1916600185901b17855561044f565b5f85815260208120601f198616915b8281101561042657888601518255948401946001909101908401610407565b508582101561044357878501515f19600388901b60f8161c191681555b505060018460011b0185555b505050505050565b602081525f82518060208401528060208501604085015e5f604082850101526040601f19601f83011684010191505092915050565b80516020808301519190811015610346575f1960209190910360031b1b16919050565b60805160a05160c05160e0516101005161012051610140516101605161200261051f5f395f6111b701525f61118a01525f6110bd01525f61109501525f610ff001525f61101a01525f61104401525f81816102c4015281816105810152818161067e0152610c4e01526120025ff3fe608060405234801561000f575f80fd5b506004361061018f575f3560e01c80636f307dc3116100dd57806395d89b4111610088578063dd62ed3e11610063578063dd62ed3e146103c0578063f2fde38b14610405578063ffbe9f1e14610418575f80fd5b806395d89b4114610392578063a9059cbb1461039a578063d505accf146103ad575f80fd5b80637ecebe00116100b85780637ecebe001461034657806384b0196e146103595780638da5cb5b14610374575f80fd5b80636f307dc3146102c257806370a0823114610309578063715018a61461033e575f80fd5b806323b872dd1161013d578063313ce56711610118578063313ce567146102975780633644e515146102a5578063534c6bcb146102ad575f80fd5b806323b872dd1461024b57806324a9d8531461025e5780632f4f21e214610284575f80fd5b806318160ddd1161016d57806318160ddd146101f5578063205c2878146101fd57806320a94f9414610210575f80fd5b806306fdde0314610193578063095ea7b3146101b15780630cd865ec146101d4575b5f80fd5b61019b610442565b6040516101a89190611c02565b60405180910390f35b6101c46101bf366004611c37565b6104d2565b60405190151581526020016101a8565b6101e76101e2366004611c5f565b6104eb565b6040519081526020016101a8565b6002546101e7565b6101c461020b366004611c37565b610505565b60085461023890760100000000000000000000000000000000000000000000900461ffff1681565b60405161ffff90911681526020016101a8565b6101c4610259366004611c78565b6105b0565b6008546102389074010000000000000000000000000000000000000000900461ffff1681565b6101c4610292366004611c37565b6105d5565b6040515f81526020016101a8565b6101e76106af565b6102c06102bb366004611cc2565b6106bd565b005b7f00000000000000000000000000000000000000000000000000000000000000005b60405173ffffffffffffffffffffffffffffffffffffffff90911681526020016101a8565b6101e7610317366004611c5f565b73ffffffffffffffffffffffffffffffffffffffff165f9081526020819052604090205490565b6102c06108ed565b6101e7610354366004611c5f565b610900565b61036161092a565b6040516101a89796959493929190611d02565b60085473ffffffffffffffffffffffffffffffffffffffff166102e4565b61019b610988565b6101c46103a8366004611c37565b610997565b6102c06103bb366004611dc2565b6109a4565b6101e76103ce366004611e2f565b73ffffffffffffffffffffffffffffffffffffffff9182165f90815260016020908152604080832093909416825291909152205490565b6102c0610413366004611c5f565b610b4d565b600854610238907801000000000000000000000000000000000000000000000000900461ffff1681565b60606003805461045190611e60565b80601f016020809104026020016040519081016040528092919081815260200182805461047d90611e60565b80156104c85780601f1061049f576101008083540402835291602001916104c8565b820191905f5260205f20905b8154815290600101906020018083116104ab57829003601f168201915b5050505050905090565b5f336104df818585610bb0565b60019150505b92915050565b5f6104f4610bc2565b6104fd82610c15565b90505b919050565b5f3073ffffffffffffffffffffffffffffffffffffffff841603610572576040517fec442f0500000000000000000000000000000000000000000000000000000000815273ffffffffffffffffffffffffffffffffffffffff841660048201526024015b60405180910390fd5b61057c3383610ce2565b6105a77f00000000000000000000000000000000000000000000000000000000000000008484610d40565b50600192915050565b5f336105bd858285610dc1565b6105c8858585610e8e565b60019150505b9392505050565b5f33308103610612576040517f96c6fd1e000000000000000000000000000000000000000000000000000000008152306004820152602401610569565b3073ffffffffffffffffffffffffffffffffffffffff851603610679576040517fec442f0500000000000000000000000000000000000000000000000000000000815273ffffffffffffffffffffffffffffffffffffffff85166004820152602401610569565b6106a57f0000000000000000000000000000000000000000000000000000000000000000823086610f37565b6104df8484610f7d565b5f6106b8610fd7565b905090565b6106c5610bc2565b60648361ffff161115610704576040517f58d620b300000000000000000000000000000000000000000000000000000000815260040160405180910390fd5b60018261ffff161115610743576040517f58d620b300000000000000000000000000000000000000000000000000000000815260040160405180910390fd5b6103e88161ffff161115610783576040517f58d620b300000000000000000000000000000000000000000000000000000000815260040160405180910390fd5b8061ffff168261ffff1611156107c5576040517f58d620b300000000000000000000000000000000000000000000000000000000815260040160405180910390fd5b600880547fffffffffffffffff00000000ffffffffffffffffffffffffffffffffffffffff167401000000000000000000000000000000000000000061ffff86811682027fffffffffffffffff0000ffffffffffffffffffffffffffffffffffffffffffff16929092177601000000000000000000000000000000000000000000008684168102919091177fffffffffffff0000ffffffffffffffffffffffffffffffffffffffffffffffff16780100000000000000000000000000000000000000000000000086851681029190911794859055604080519386048516845291850484166020840152909304909116918101919091527fed207bddb8cb5993139af6ecf22c60db0efb4f27a841f54c9bdc9b52223ea5769060600160405180910390a1505050565b6108f5610bc2565b6108fe5f61110d565b565b73ffffffffffffffffffffffffffffffffffffffff81165f908152600760205260408120546104fd565b5f6060805f805f606061093b611183565b6109436111b0565b604080515f808252602082019092527f0f000000000000000000000000000000000000000000000000000000000000009b939a50919850469750309650945092509050565b60606004805461045190611e60565b5f336104df818585610e8e565b834211156109e1576040517f6279130200000000000000000000000000000000000000000000000000000000815260048101859052602401610569565b5f7f6e71edae12b1b97f4d1f60370fef10105fa2faae0126114a169c64845d6126c9888888610a398c73ffffffffffffffffffffffffffffffffffffffff165f90815260076020526040902080546001810190915590565b60408051602081019690965273ffffffffffffffffffffffffffffffffffffffff94851690860152929091166060840152608083015260a082015260c0810186905260e0016040516020818303038152906040528051906020012090505f610aa0826111dd565b90505f610aaf82878787611224565b90508973ffffffffffffffffffffffffffffffffffffffff168173ffffffffffffffffffffffffffffffffffffffff1614610b36576040517f4b800e4600000000000000000000000000000000000000000000000000000000815273ffffffffffffffffffffffffffffffffffffffff80831660048301528b166024820152604401610569565b610b418a8a8a610bb0565b50505050505050505050565b610b55610bc2565b73ffffffffffffffffffffffffffffffffffffffff8116610ba4576040517f1e4fbdf70000000000000000000000000000000000000000000000000000000081525f6004820152602401610569565b610bad8161110d565b50565b610bbd8383836001611250565b505050565b60085473ffffffffffffffffffffffffffffffffffffffff1633146108fe576040517f118cdaa7000000000000000000000000000000000000000000000000000000008152336004820152602401610569565b5f80610c2060025490565b6040517f70a082310000000000000000000000000000000000000000000000000000000081523060048201527f000000000000000000000000000000000000000000000000000000000000000073ffffffffffffffffffffffffffffffffffffffff16906370a0823190602401602060405180830381865afa158015610ca8573d5f803e3d5ffd5b505050506040513d601f19601f82011682018060405250810190610ccc9190611eb1565b610cd69190611ef5565b90506104e58382610f7d565b73ffffffffffffffffffffffffffffffffffffffff8216610d31576040517f96c6fd1e0000000000000000000000000000000000000000000000000000000081525f6004820152602401610569565b610d3c825f83611395565b5050565b60405173ffffffffffffffffffffffffffffffffffffffff838116602483015260448201839052610bbd91859182169063a9059cbb906064015b604051602081830303815290604052915060e01b6020820180517bffffffffffffffffffffffffffffffffffffffffffffffffffffffff83818316178352505050506114c2565b73ffffffffffffffffffffffffffffffffffffffff8381165f908152600160209081526040808320938616835292905220547fffffffffffffffffffffffffffffffffffffffffffffffffffffffffffffffff8114610e885781811015610e7a576040517ffb8f41b200000000000000000000000000000000000000000000000000000000815273ffffffffffffffffffffffffffffffffffffffff841660048201526024810182905260448101839052606401610569565b610e8884848484035f611250565b50505050565b73ffffffffffffffffffffffffffffffffffffffff8316610edd576040517f96c6fd1e0000000000000000000000000000000000000000000000000000000081525f6004820152602401610569565b73ffffffffffffffffffffffffffffffffffffffff8216610f2c576040517fec442f050000000000000000000000000000000000000000000000000000000081525f6004820152602401610569565b610bbd838383611395565b60405173ffffffffffffffffffffffffffffffffffffffff8481166024830152838116604483015260648201839052610e889186918216906323b872dd90608401610d7a565b73ffffffffffffffffffffffffffffffffffffffff8216610fcc576040517fec442f050000000000000000000000000000000000000000000000000000000081525f6004820152602401610569565b610d3c5f8383611395565b5f3073ffffffffffffffffffffffffffffffffffffffff7f00000000000000000000000000000000000000000000000000000000000000001614801561103c57507f000000000000000000000000000000000000000000000000000000000000000046145b1561106657507f000000000000000000000000000000000000000000000000000000000000000090565b6106b8604080517f8b73c3c69bb8fe3d512ecc4cf759cc79239f7b179b0ffacaa9a75d522b39400f60208201527f0000000000000000000000000000000000000000000000000000000000000000918101919091527f000000000000000000000000000000000000000000000000000000000000000060608201524660808201523060a08201525f9060c00160405160208183030381529060405280519060200120905090565b6008805473ffffffffffffffffffffffffffffffffffffffff8381167fffffffffffffffffffffffff0000000000000000000000000000000000000000831681179093556040519116919082907f8be0079c531659141344cd1fd0a4f28419497f9722a3daafe3b4186f6b6457e0905f90a35050565b60606106b87f00000000000000000000000000000000000000000000000000000000000000006005611556565b60606106b87f00000000000000000000000000000000000000000000000000000000000000006006611556565b5f6104fd6111e9610fd7565b836040517f19010000000000000000000000000000000000000000000000000000000000008152600281019290925260228201526042902090565b5f805f80611234888888886115ff565b92509250925061124482826116f2565b50909695505050505050565b73ffffffffffffffffffffffffffffffffffffffff841661129f576040517fe602df050000000000000000000000000000000000000000000000000000000081525f6004820152602401610569565b73ffffffffffffffffffffffffffffffffffffffff83166112ee576040517f94280d620000000000000000000000000000000000000000000000000000000081525f6004820152602401610569565b73ffffffffffffffffffffffffffffffffffffffff8085165f9081526001602090815260408083209387168352929052208290558015610e88578273ffffffffffffffffffffffffffffffffffffffff168473ffffffffffffffffffffffffffffffffffffffff167f8c5be1e5ebec7d5bd14f71427d1e84f3dd0314c0f7b2291e5b200ac8c7c3b9258460405161138791815260200190565b60405180910390a350505050565b73ffffffffffffffffffffffffffffffffffffffff831615806113cc575073ffffffffffffffffffffffffffffffffffffffff8216155b156113dc57610bbd8383836117f5565b60085461ffff74010000000000000000000000000000000000000000820481169176010000000000000000000000000000000000000000000081048216917801000000000000000000000000000000000000000000000000909104165f6127106114468587611f08565b6114509190611f1f565b90508281101561146157508161146c565b8181111561146c5750805b84811061147657505f5b61148a87876114858489611ef5565b6117f5565b80156114b9576114b9876114b360085473ffffffffffffffffffffffffffffffffffffffff1690565b836117f5565b50505050505050565b5f6114e373ffffffffffffffffffffffffffffffffffffffff84168361199c565b905080515f141580156115075750808060200190518101906115059190611f57565b155b15610bbd576040517f5274afe700000000000000000000000000000000000000000000000000000000815273ffffffffffffffffffffffffffffffffffffffff84166004820152602401610569565b606060ff831461157057611569836119a9565b90506104e5565b81805461157c90611e60565b80601f01602080910402602001604051908101604052809291908181526020018280546115a890611e60565b80156115f35780601f106115ca576101008083540402835291602001916115f3565b820191905f5260205f20905b8154815290600101906020018083116115d657829003601f168201915b505050505090506104e5565b5f80807f7fffffffffffffffffffffffffffffff5d576e7357a4501ddfe92f46681b20a084111561163857505f915060039050826116e8565b604080515f808252602082018084528a905260ff891692820192909252606081018790526080810186905260019060a0016020604051602081039080840390855afa158015611689573d5f803e3d5ffd5b50506040517fffffffffffffffffffffffffffffffffffffffffffffffffffffffffffffffe0015191505073ffffffffffffffffffffffffffffffffffffffff81166116df57505f9250600191508290506116e8565b92505f91508190505b9450945094915050565b5f82600381111561170557611705611f76565b0361170e575050565b600182600381111561172257611722611f76565b03611759576040517ff645eedf00000000000000000000000000000000000000000000000000000000815260040160405180910390fd5b600282600381111561176d5761176d611f76565b036117a7576040517ffce698f700000000000000000000000000000000000000000000000000000000815260048101829052602401610569565b60038260038111156117bb576117bb611f76565b03610d3c576040517fd78bce0c00000000000000000000000000000000000000000000000000000000815260048101829052602401610569565b73ffffffffffffffffffffffffffffffffffffffff831661182c578060025f8282546118219190611fa3565b909155506118dc9050565b73ffffffffffffffffffffffffffffffffffffffff83165f90815260208190526040902054818110156118b1576040517fe450d38c00000000000000000000000000000000000000000000000000000000815273ffffffffffffffffffffffffffffffffffffffff851660048201526024810182905260448101839052606401610569565b73ffffffffffffffffffffffffffffffffffffffff84165f9081526020819052604090209082900390555b73ffffffffffffffffffffffffffffffffffffffff821661190557600280548290039055611930565b73ffffffffffffffffffffffffffffffffffffffff82165f9081526020819052604090208054820190555b8173ffffffffffffffffffffffffffffffffffffffff168373ffffffffffffffffffffffffffffffffffffffff167fddf252ad1be2c89b69c2b068fc378daa952ba7f163c4a11628f55a4df523b3ef8360405161198f91815260200190565b60405180910390a3505050565b60606105ce83835f6119e6565b60605f6119b583611aa5565b6040805160208082528183019092529192505f91906020820181803683375050509182525060208101929092525090565b606081471015611a24576040517fcd786059000000000000000000000000000000000000000000000000000000008152306004820152602401610569565b5f808573ffffffffffffffffffffffffffffffffffffffff168486604051611a4c9190611fb6565b5f6040518083038185875af1925050503d805f8114611a86576040519150601f19603f3d011682016040523d82523d5f602084013e611a8b565b606091505b5091509150611a9b868383611ae5565b9695505050505050565b5f60ff8216601f8111156104e5576040517fb3512b0c00000000000000000000000000000000000000000000000000000000815260040160405180910390fd5b606082611afa57611af582611b74565b6105ce565b8151158015611b1e575073ffffffffffffffffffffffffffffffffffffffff84163b155b15611b6d576040517f9996b31500000000000000000000000000000000000000000000000000000000815273ffffffffffffffffffffffffffffffffffffffff85166004820152602401610569565b50806105ce565b805115611b845780518082602001fd5b6040517f1425ea4200000000000000000000000000000000000000000000000000000000815260040160405180910390fd5b5f81518084528060208401602086015e5f6020828601015260207fffffffffffffffffffffffffffffffffffffffffffffffffffffffffffffffe0601f83011685010191505092915050565b602081525f6105ce6020830184611bb6565b803573ffffffffffffffffffffffffffffffffffffffff81168114610500575f80fd5b5f8060408385031215611c48575f80fd5b611c5183611c14565b946020939093013593505050565b5f60208284031215611c6f575f80fd5b6105ce82611c14565b5f805f60608486031215611c8a575f80fd5b611c9384611c14565b9250611ca160208501611c14565b9150604084013590509250925092565b803561ffff81168114610500575f80fd5b5f805f60608486031215611cd4575f80fd5b611cdd84611cb1565b9250611ceb60208501611cb1565b9150611cf960408501611cb1565b90509250925092565b7fff00000000000000000000000000000000000000000000000000000000000000881681525f602060e06020840152611d3e60e084018a611bb6565b8381036040850152611d50818a611bb6565b6060850189905273ffffffffffffffffffffffffffffffffffffffff8816608086015260a0850187905284810360c0860152855180825260208088019350909101905f5b81811015611db057835183529284019291840191600101611d94565b50909c9b505050505050505050505050565b5f805f805f805f60e0888a031215611dd8575f80fd5b611de188611c14565b9650611def60208901611c14565b95506040880135945060608801359350608088013560ff81168114611e12575f80fd5b9699959850939692959460a0840135945060c09093013592915050565b5f8060408385031215611e40575f80fd5b611e4983611c14565b9150611e5760208401611c14565b90509250929050565b600181811c90821680611e7457607f821691505b602082108103611eab577f4e487b71000000000000000000000000000000000000000000000000000000005f52602260045260245ffd5b50919050565b5f60208284031215611ec1575f80fd5b5051919050565b7f4e487b71000000000000000000000000000000000000000000000000000000005f52601160045260245ffd5b818103818111156104e5576104e5611ec8565b80820281158282048414176104e5576104e5611ec8565b5f82611f52577f4e487b71000000000000000000000000000000000000000000000000000000005f52601260045260245ffd5b500490565b5f60208284031215611f67575f80fd5b815180151581146105ce575f80fd5b7f4e487b71000000000000000000000000000000000000000000000000000000005f52602160045260245ffd5b808201808211156104e5576104e5611ec8565b5f82518060208501845e5f92019182525091905056fea2646970667358221220dd31eafe28767db5fbde929b2d62b3a3aa509c801ce5855ff4251de5a0c927f664736f6c63430008190033",
          "opcodes": "PUSH2 0x180 PUSH1 0x40 MSTORE CALLVALUE DUP1 ISZERO PUSH2 0x10 JUMPI PUSH0 DUP1 REVERT JUMPDEST POP PUSH1 0x40 MLOAD PUSH2 0x2521 CODESIZE SUB DUP1 PUSH2 0x2521 DUP4 CODECOPY DUP2 ADD PUSH1 0x40 DUP2 SWAP1 MSTORE PUSH2 0x2F SWAP2 PUSH2 0x2C8 JUMP JUMPDEST DUP1 PUSH1 0x40 MLOAD DUP1 PUSH1 0x40 ADD PUSH1 0x40 MSTORE DUP1 PUSH1 0x7 DUP2 MSTORE PUSH1 0x20 ADD PUSH7 0x5361746F736869 PUSH1 0xC8 SHL DUP2 MSTORE POP DUP1 PUSH1 0x40 MLOAD DUP1 PUSH1 0x40 ADD PUSH1 0x40 MSTORE DUP1 PUSH1 0x1 DUP2 MSTORE PUSH1 0x20 ADD PUSH1 0x31 PUSH1 0xF8 SHL DUP2 MSTORE POP DUP6 PUSH1 0x40 MLOAD DUP1 PUSH1 0x40 ADD PUSH1 0x40 MSTORE DUP1 PUSH1 0x7 DUP2 MSTORE PUSH1 0x20 ADD PUSH7 0x5361746F736869 PUSH1 0xC8 SHL DUP2 MSTORE POP PUSH1 0x40 MLOAD DUP1 PUSH1 0x40 ADD PUSH1 0x40 MSTORE DUP1 PUSH1 0x4 DUP2 MSTORE PUSH1 0x20 ADD PUSH4 0x5341544F PUSH1 0xE0 SHL DUP2 MSTORE POP DUP2 PUSH1 0x3 SWAP1 DUP2 PUSH2 0xB8 SWAP2 SWAP1 PUSH2 0x398 JUMP JUMPDEST POP PUSH1 0x4 PUSH2 0xC5 DUP3 DUP3 PUSH2 0x398 JUMP JUMPDEST POP POP ADDRESS PUSH1 0x1 PUSH1 0x1 PUSH1 0xA0 SHL SUB DUP4 AND SUB SWAP1 POP PUSH2 0xF9 JUMPI PUSH1 0x40 MLOAD PUSH4 0x438D6FE3 PUSH1 0xE0 SHL DUP2 MSTORE ADDRESS PUSH1 0x4 DUP3 ADD MSTORE PUSH1 0x24 ADD JUMPDEST PUSH1 0x40 MLOAD DUP1 SWAP2 SUB SWAP1 REVERT JUMPDEST PUSH1 0x1 PUSH1 0x1 PUSH1 0xA0 SHL SUB AND PUSH1 0x80 MSTORE PUSH2 0x110 DUP3 PUSH1 0x5 PUSH2 0x1F1 JUMP JUMPDEST PUSH2 0x140 MSTORE PUSH2 0x11F DUP2 PUSH1 0x6 PUSH2 0x1F1 JUMP JUMPDEST PUSH2 0x160 MSTORE DUP2 MLOAD PUSH1 0x20 DUP1 DUP5 ADD SWAP2 SWAP1 SWAP2 KECCAK256 PUSH2 0x100 MSTORE DUP2 MLOAD SWAP1 DUP3 ADD KECCAK256 PUSH2 0x120 MSTORE CHAINID PUSH1 0xC0 MSTORE PUSH2 0x1AD PUSH2 0x100 MLOAD PUSH2 0x120 MLOAD PUSH1 0x40 DUP1 MLOAD PUSH32 0x8B73C3C69BB8FE3D512ECC4CF759CC79239F7B179B0FFACAA9A75D522B39400F PUSH1 0x20 DUP3 ADD MSTORE SWAP1 DUP2 ADD SWAP3 SWAP1 SWAP3 MSTORE PUSH1 0x60 DUP3 ADD MSTORE CHAINID PUSH1 0x80 DUP3 ADD MSTORE ADDRESS PUSH1 0xA0 DUP3 ADD MSTORE PUSH0 SWAP1 PUSH1 0xC0 ADD PUSH1 0x40 MLOAD PUSH1 0x20 DUP2 DUP4 SUB SUB DUP2 MSTORE SWAP1 PUSH1 0x40 MSTORE DUP1 MLOAD SWAP1 PUSH1 0x20 ADD KECCAK256 SWAP1 POP SWAP1 JUMP JUMPDEST PUSH1 0xA0 MSTORE POP POP ADDRESS PUSH1 0xE0 MSTORE POP PUSH1 0x1 PUSH1 0x1 PUSH1 0xA0 SHL SUB DUP2 AND PUSH2 0x1E0 JUMPI PUSH1 0x40 MLOAD PUSH4 0x1E4FBDF7 PUSH1 0xE0 SHL DUP2 MSTORE PUSH0 PUSH1 0x4 DUP3 ADD MSTORE PUSH1 0x24 ADD PUSH2 0xF0 JUMP JUMPDEST PUSH2 0x1E9 DUP2 PUSH2 0x223 JUMP JUMPDEST POP POP POP PUSH2 0x4AF JUMP JUMPDEST PUSH0 PUSH1 0x20 DUP4 MLOAD LT ISZERO PUSH2 0x20C JUMPI PUSH2 0x205 DUP4 PUSH2 0x274 JUMP JUMPDEST SWAP1 POP PUSH2 0x21D JUMP JUMPDEST DUP2 PUSH2 0x217 DUP5 DUP3 PUSH2 0x398 JUMP JUMPDEST POP PUSH1 0xFF SWAP1 POP JUMPDEST SWAP3 SWAP2 POP POP JUMP JUMPDEST PUSH1 0x8 DUP1 SLOAD PUSH1 0x1 PUSH1 0x1 PUSH1 0xA0 SHL SUB DUP4 DUP2 AND PUSH1 0x1 PUSH1 0x1 PUSH1 0xA0 SHL SUB NOT DUP4 AND DUP2 OR SWAP1 SWAP4 SSTORE PUSH1 0x40 MLOAD SWAP2 AND SWAP2 SWAP1 DUP3 SWAP1 PUSH32 0x8BE0079C531659141344CD1FD0A4F28419497F9722A3DAAFE3B4186F6B6457E0 SWAP1 PUSH0 SWAP1 LOG3 POP POP JUMP JUMPDEST PUSH0 DUP1 DUP3 SWAP1 POP PUSH1 0x1F DUP2 MLOAD GT ISZERO PUSH2 0x29E JUMPI DUP3 PUSH1 0x40 MLOAD PUSH4 0x305A27A9 PUSH1 0xE0 SHL DUP2 MSTORE PUSH1 0x4 ADD PUSH2 0xF0 SWAP2 SWAP1 PUSH2 0x457 JUMP JUMPDEST DUP1 MLOAD PUSH2 0x2A9 DUP3 PUSH2 0x48C JUMP JUMPDEST OR SWAP4 SWAP3 POP POP POP JUMP JUMPDEST PUSH1 0x1 PUSH1 0x1 PUSH1 0xA0 SHL SUB DUP2 AND DUP2 EQ PUSH2 0x2C5 JUMPI PUSH0 DUP1 REVERT JUMPDEST POP JUMP JUMPDEST PUSH0 DUP1 PUSH1 0x40 DUP4 DUP6 SUB SLT ISZERO PUSH2 0x2D9 JUMPI PUSH0 DUP1 REVERT JUMPDEST DUP3 MLOAD PUSH2 0x2E4 DUP2 PUSH2 0x2B1 JUMP JUMPDEST PUSH1 0x20 DUP5 ADD MLOAD SWAP1 SWAP3 POP PUSH2 0x2F5 DUP2 PUSH2 0x2B1 JUMP JUMPDEST DUP1 SWAP2 POP POP SWAP3 POP SWAP3 SWAP1 POP JUMP JUMPDEST PUSH4 0x4E487B71 PUSH1 0xE0 SHL PUSH0 MSTORE PUSH1 0x41 PUSH1 0x4 MSTORE PUSH1 0x24 PUSH0 REVERT JUMPDEST PUSH1 0x1 DUP2 DUP2 SHR SWAP1 DUP3 AND DUP1 PUSH2 0x328 JUMPI PUSH1 0x7F DUP3 AND SWAP2 POP JUMPDEST PUSH1 0x20 DUP3 LT DUP2 SUB PUSH2 0x346 JUMPI PUSH4 0x4E487B71 PUSH1 0xE0 SHL PUSH0 MSTORE PUSH1 0x22 PUSH1 0x4 MSTORE PUSH1 0x24 PUSH0 REVERT JUMPDEST POP SWAP2 SWAP1 POP JUMP JUMPDEST PUSH1 0x1F DUP3 GT ISZERO PUSH2 0x393 JUMPI DUP1 PUSH0 MSTORE PUSH1 0x20 PUSH0 KECCAK256 PUSH1 0x1F DUP5 ADD PUSH1 0x5 SHR DUP2 ADD PUSH1 0x20 DUP6 LT ISZERO PUSH2 0x371 JUMPI POP DUP1 JUMPDEST PUSH1 0x1F DUP5 ADD PUSH1 0x5 SHR DUP3 ADD SWAP2 POP JUMPDEST DUP2 DUP2 LT ISZERO PUSH2 0x390 JUMPI PUSH0 DUP2 SSTORE PUSH1 0x1 ADD PUSH2 0x37D JUMP JUMPDEST POP POP JUMPDEST POP POP POP JUMP JUMPDEST DUP2 MLOAD PUSH1 0x1 PUSH1 0x1 PUSH1 0x40 SHL SUB DUP2 GT ISZERO PUSH2 0x3B1 JUMPI PUSH2 0x3B1 PUSH2 0x300 JUMP JUMPDEST PUSH2 0x3C5 DUP2 PUSH2 0x3BF DUP5 SLOAD PUSH2 0x314 JUMP JUMPDEST DUP5 PUSH2 0x34C JUMP JUMPDEST PUSH1 0x20 DUP1 PUSH1 0x1F DUP4 GT PUSH1 0x1 DUP2 EQ PUSH2 0x3F8 JUMPI PUSH0 DUP5 ISZERO PUSH2 0x3E1 JUMPI POP DUP6 DUP4 ADD MLOAD JUMPDEST PUSH0 NOT PUSH1 0x3 DUP7 SWAP1 SHL SHR NOT AND PUSH1 0x1 DUP6 SWAP1 SHL OR DUP6 SSTORE PUSH2 0x44F JUMP JUMPDEST PUSH0 DUP6 DUP2 MSTORE PUSH1 0x20 DUP2 KECCAK256 PUSH1 0x1F NOT DUP7 AND SWAP2 JUMPDEST DUP3 DUP2 LT ISZERO PUSH2 0x426 JUMPI DUP9 DUP7 ADD MLOAD DUP3 SSTORE SWAP5 DUP5 ADD SWAP5 PUSH1 0x1 SWAP1 SWAP2 ADD SWAP1 DUP5 ADD PUSH2 0x407 JUMP JUMPDEST POP DUP6 DUP3 LT ISZERO PUSH2 0x443 JUMPI DUP8 DUP6 ADD MLOAD PUSH0 NOT PUSH1 0x3 DUP9 SWAP1 SHL PUSH1 0xF8 AND SHR NOT AND DUP2 SSTORE JUMPDEST POP POP PUSH1 0x1 DUP5 PUSH1 0x1 SHL ADD DUP6 SSTORE JUMPDEST POP POP POP POP POP POP JUMP JUMPDEST PUSH1 0x20 DUP2 MSTORE PUSH0 DUP3 MLOAD DUP1 PUSH1 0x20 DUP5 ADD MSTORE DUP1 PUSH1 0x20 DUP6 ADD PUSH1 0x40 DUP6 ADD MCOPY PUSH0 PUSH1 0x40 DUP3 DUP6 ADD ADD MSTORE PUSH1 0x40 PUSH1 0x1F NOT PUSH1 0x1F DUP4 ADD AND DUP5 ADD ADD SWAP2 POP POP SWAP3 SWAP2 POP POP JUMP JUMPDEST DUP1 MLOAD PUSH1 0x20 DUP1 DUP4 ADD MLOAD SWAP2 SWAP1 DUP2 LT ISZERO PUSH2 0x346 JUMPI PUSH0 NOT PUSH1 0x20 SWAP2 SWAP1 SWAP2 SUB PUSH1 0x3 SHL SHL AND SWAP2 SWAP1 POP JUMP JUMPDEST PUSH1 0x80 MLOAD PUSH1 0xA0 MLOAD PUSH1 0xC0 MLOAD PUSH1 0xE0 MLOAD PUSH2 0x100 MLOAD PUSH2 0x120 MLOAD PUSH2 0x140 MLOAD PUSH2 0x160 MLOAD PUSH2 0x2002 PUSH2 0x51F PUSH0 CODECOPY PUSH0 PUSH2 0x11B7 ADD MSTORE PUSH0 PUSH2 0x118A ADD MSTORE PUSH0 PUSH2 0x10BD ADD MSTORE PUSH0 PUSH2 0x1095 ADD MSTORE PUSH0 PUSH2 0xFF0 ADD MSTORE PUSH0 PUSH2 0x101A ADD MSTORE PUSH0 PUSH2 0x1044 ADD MSTORE PUSH0 DUP2 DUP2 PUSH2 0x2C4 ADD MSTORE DUP2 DUP2 PUSH2 0x581 ADD MSTORE DUP2 DUP2 PUSH2 0x67E ADD MSTORE PUSH2 0xC4E ADD MSTORE PUSH2 0x2002 PUSH0 RETURN INVALID PUSH1 0x80 PUSH1 0x40 MSTORE CALLVALUE DUP1 ISZERO PUSH2 0xF JUMPI PUSH0 DUP1 REVERT JUMPDEST POP PUSH1 0x4 CALLDATASIZE LT PUSH2 0x18F JUMPI PUSH0 CALLDATALOAD PUSH1 0xE0 SHR DUP1 PUSH4 0x6F307DC3 GT PUSH2 0xDD JUMPI DUP1 PUSH4 0x95D89B41 GT PUSH2 0x88 JUMPI DUP1 PUSH4 0xDD62ED3E GT PUSH2 0x63 JUMPI DUP1 PUSH4 0xDD62ED3E EQ PUSH2 0x3C0 JUMPI DUP1 PUSH4 0xF2FDE38B EQ PUSH2 0x405 JUMPI DUP1 PUSH4 0xFFBE9F1E EQ PUSH2 0x418 JUMPI PUSH0 DUP1 REVERT JUMPDEST DUP1 PUSH4 0x95D89B41 EQ PUSH2 0x392 JUMPI DUP1 PUSH4 0xA9059CBB EQ PUSH2 0x39A JUMPI DUP1 PUSH4 0xD505ACCF EQ PUSH2 0x3AD JUMPI PUSH0 DUP1 REVERT JUMPDEST DUP1 PUSH4 0x7ECEBE00 GT PUSH2 0xB8 JUMPI DUP1 PUSH4 0x7ECEBE00 EQ PUSH2 0x346 JUMPI DUP1 PUSH4 0x84B0196E EQ PUSH2 0x359 JUMPI DUP1 PUSH4 0x8DA5CB5B EQ PUSH2 0x374 JUMPI PUSH0 DUP1 REVERT JUMPDEST DUP1 PUSH4 0x6F307DC3 EQ PUSH2 0x2C2 JUMPI DUP1 PUSH4 0x70A08231 EQ PUSH2 0x309 JUMPI DUP1 PUSH4 0x715018A6 EQ PUSH2 0x33E JUMPI PUSH0 DUP1 REVERT JUMPDEST DUP1 PUSH4 0x23B872DD GT PUSH2 0x13D JUMPI DUP1 PUSH4 0x313CE567 GT PUSH2 0x118 JUMPI DUP1 PUSH4 0x313CE567 EQ PUSH2 0x297 JUMPI DUP1 PUSH4 0x3644E515 EQ PUSH2 0x2A5 JUMPI DUP1 PUSH4 0x534C6BCB EQ PUSH2 0x2AD JUMPI PUSH0 DUP1 REVERT JUMPDEST DUP1 PUSH4 0x23B872DD EQ PUSH2 0x24B JUMPI DUP1 PUSH4 0x24A9D853 EQ PUSH2 0x25E JUMPI DUP1 PUSH4 0x2F4F21E2 EQ PUSH2 0x284 JUMPI PUSH0 DUP1 REVERT JUMPDEST DUP1 PUSH4 0x18160DDD GT PUSH2 0x16D JUMPI DUP1 PUSH4 0x18160DDD EQ PUSH2 0x1F5 JUMPI DUP1 PUSH4 0x205C2878 EQ PUSH2 0x1FD JUMPI DUP1 PUSH4 0x20A94F94 EQ PUSH2 0x210 JUMPI PUSH0 DUP1 REVERT JUMPDEST DUP1 PUSH4 0x6FDDE03 EQ PUSH2 0x193 JUMPI DUP1 PUSH4 0x95EA7B3 EQ PUSH2 0x1B1 JUMPI DUP1 PUSH4 0xCD865EC EQ PUSH2 0x1D4 JUMPI JUMPDEST PUSH0 DUP1 REVERT JUMPDEST PUSH2 0x19B PUSH2 0x442 JUMP JUMPDEST PUSH1 0x40 MLOAD PUSH2 0x1A8 SWAP2 SWAP1 PUSH2 0x1C02 JUMP JUMPDEST PUSH1 0x40 MLOAD DUP1 SWAP2 SUB SWAP1 RETURN JUMPDEST PUSH2 0x1C4 PUSH2 0x1BF CALLDATASIZE PUSH1 0x4 PUSH2 0x1C37 JUMP JUMPDEST PUSH2 0x4D2 JUMP JUMPDEST PUSH1 0x40 MLOAD SWAP1 ISZERO ISZERO DUP2 MSTORE PUSH1 0x20 ADD PUSH2 0x1A8 JUMP JUMPDEST PUSH2 0x1E7 PUSH2 0x1E2 CALLDATASIZE PUSH1 0x4 PUSH2 0x1C5F JUMP JUMPDEST PUSH2 0x4EB JUMP JUMPDEST PUSH1 0x40 MLOAD SWAP1 DUP2 MSTORE PUSH1 0x20 ADD PUSH2 0x1A8 JUMP JUMPDEST PUSH1 0x2 SLOAD PUSH2 0x1E7 JUMP JUMPDEST PUSH2 0x1C4 PUSH2 0x20B CALLDATASIZE PUSH1 0x4 PUSH2 0x1C37 JUMP JUMPDEST PUSH2 0x505 JUMP JUMPDEST PUSH1 0x8 SLOAD PUSH2 0x238 SWAP1 PUSH23 0x100000000000000000000000000000000000000000000 SWAP1 DIV PUSH2 0xFFFF AND DUP2 JUMP JUMPDEST PUSH1 0x40 MLOAD PUSH2 0xFFFF SWAP1 SWAP2 AND DUP2 MSTORE PUSH1 0x20 ADD PUSH2 0x1A8 JUMP JUMPDEST PUSH2 0x1C4 PUSH2 0x259 CALLDATASIZE PUSH1 0x4 PUSH2 0x1C78 JUMP JUMPDEST PUSH2 0x5B0 JUMP JUMPDEST PUSH1 0x8 SLOAD PUSH2 0x238 SWAP1 PUSH21 0x10000000000000000000000000000000000000000 SWAP1 DIV PUSH2 0xFFFF AND DUP2 JUMP JUMPDEST PUSH2 0x1C4 PUSH2 0x292 CALLDATASIZE PUSH1 0x4 PUSH2 0x1C37 JUMP JUMPDEST PUSH2 0x5D5 JUMP JUMPDEST PUSH1 0x40 MLOAD PUSH0 DUP2 MSTORE PUSH1 0x20 ADD PUSH2 0x1A8 JUMP JUMPDEST PUSH2 0x1E7 PUSH2 0x6AF JUMP JUMPDEST PUSH2 0x2C0 PUSH2 0x2BB CALLDATASIZE PUSH1 0x4 PUSH2 0x1CC2 JUMP JUMPDEST PUSH2 0x6BD JUMP JUMPDEST STOP JUMPDEST PUSH32 0x0 JUMPDEST PUSH1 0x40 MLOAD PUSH20 0xFFFFFFFFFFFFFFFFFFFFFFFFFFFFFFFFFFFFFFFF SWAP1 SWAP2 AND DUP2 MSTORE PUSH1 0x20 ADD PUSH2 0x1A8 JUMP JUMPDEST PUSH2 0x1E7 PUSH2 0x317 CALLDATASIZE PUSH1 0x4 PUSH2 0x1C5F JUMP JUMPDEST PUSH20 0xFFFFFFFFFFFFFFFFFFFFFFFFFFFFFFFFFFFFFFFF AND PUSH0 SWAP1 DUP2 MSTORE PUSH1 0x20 DUP2 SWAP1 MSTORE PUSH1 0x40 SWAP1 KECCAK256 SLOAD SWAP1 JUMP JUMPDEST PUSH2 0x2C0 PUSH2 0x8ED JUMP JUMPDEST PUSH2 0x1E7 PUSH2 0x354 CALLDATASIZE PUSH1 0x4 PUSH2 0x1C5F JUMP JUMPDEST PUSH2 0x900 JUMP JUMPDEST PUSH2 0x361 PUSH2 0x92A JUMP JUMPDEST PUSH1 0x40 MLOAD PUSH2 0x1A8 SWAP8 SWAP7 SWAP6 SWAP5 SWAP4 SWAP3 SWAP2 SWAP1 PUSH2 0x1D02 JUMP JUMPDEST PUSH1 0x8 SLOAD PUSH20 0xFFFFFFFFFFFFFFFFFFFFFFFFFFFFFFFFFFFFFFFF AND PUSH2 0x2E4 JUMP JUMPDEST PUSH2 0x19B PUSH2 0x988 JUMP JUMPDEST PUSH2 0x1C4 PUSH2 0x3A8 CALLDATASIZE PUSH1 0x4 PUSH2 0x1C37 JUMP JUMPDEST PUSH2 0x997 JUMP JUMPDEST PUSH2 0x2C0 PUSH2 0x3BB CALLDATASIZE PUSH1 0x4 PUSH2 0x1DC2 JUMP JUMPDEST PUSH2 0x9A4 JUMP JUMPDEST PUSH2 0x1E7 PUSH2 0x3CE CALLDATASIZE PUSH1 0x4 PUSH2 0x1E2F JUMP JUMPDEST PUSH20 0xFFFFFFFFFFFFFFFFFFFFFFFFFFFFFFFFFFFFFFFF SWAP2 DUP3 AND PUSH0 SWAP1 DUP2 MSTORE PUSH1 0x1 PUSH1 0x20 SWAP1 DUP2 MSTORE PUSH1 0x40 DUP1 DUP4 KECCAK256 SWAP4 SWAP1 SWAP5 AND DUP3 MSTORE SWAP2 SWAP1 SWAP2 MSTORE KECCAK256 SLOAD SWAP1 JUMP JUMPDEST PUSH2 0x2C0 PUSH2 0x413 CALLDATASIZE PUSH1 0x4 PUSH2 0x1C5F JUMP JUMPDEST PUSH2 0xB4D JUMP JUMPDEST PUSH1 0x8 SLOAD PUSH2 0x238 SWAP1 PUSH25 0x1000000000000000000000000000000000000000000000000 SWAP1 DIV PUSH2 0xFFFF AND DUP2 JUMP JUMPDEST PUSH1 0x60 PUSH1 0x3 DUP1 SLOAD PUSH2 0x451 SWAP1 PUSH2 0x1E60 JUMP JUMPDEST DUP1 PUSH1 0x1F ADD PUSH1 0x20 DUP1 SWAP2 DIV MUL PUSH1 0x20 ADD PUSH1 0x40 MLOAD SWAP1 DUP2 ADD PUSH1 0x40 MSTORE DUP1 SWAP3 SWAP2 SWAP1 DUP2 DUP2 MSTORE PUSH1 0x20 ADD DUP3 DUP1 SLOAD PUSH2 0x47D SWAP1 PUSH2 0x1E60 JUMP JUMPDEST DUP1 ISZERO PUSH2 0x4C8 JUMPI DUP1 PUSH1 0x1F LT PUSH2 0x49F JUMPI PUSH2 0x100 DUP1 DUP4 SLOAD DIV MUL DUP4 MSTORE SWAP2 PUSH1 0x20 ADD SWAP2 PUSH2 0x4C8 JUMP JUMPDEST DUP3 ADD SWAP2 SWAP1 PUSH0 MSTORE PUSH1 0x20 PUSH0 KECCAK256 SWAP1 JUMPDEST DUP2 SLOAD DUP2 MSTORE SWAP1 PUSH1 0x1 ADD SWAP1 PUSH1 0x20 ADD DUP1 DUP4 GT PUSH2 0x4AB JUMPI DUP3 SWAP1 SUB PUSH1 0x1F AND DUP3 ADD SWAP2 JUMPDEST POP POP POP POP POP SWAP1 POP SWAP1 JUMP JUMPDEST PUSH0 CALLER PUSH2 0x4DF DUP2 DUP6 DUP6 PUSH2 0xBB0 JUMP JUMPDEST PUSH1 0x1 SWAP2 POP POP JUMPDEST SWAP3 SWAP2 POP POP JUMP JUMPDEST PUSH0 PUSH2 0x4F4 PUSH2 0xBC2 JUMP JUMPDEST PUSH2 0x4FD DUP3 PUSH2 0xC15 JUMP JUMPDEST SWAP1 POP JUMPDEST SWAP2 SWAP1 POP JUMP JUMPDEST PUSH0 ADDRESS PUSH20 0xFFFFFFFFFFFFFFFFFFFFFFFFFFFFFFFFFFFFFFFF DUP5 AND SUB PUSH2 0x572 JUMPI PUSH1 0x40 MLOAD PUSH32 0xEC442F0500000000000000000000000000000000000000000000000000000000 DUP2 MSTORE PUSH20 0xFFFFFFFFFFFFFFFFFFFFFFFFFFFFFFFFFFFFFFFF DUP5 AND PUSH1 0x4 DUP3 ADD MSTORE PUSH1 0x24 ADD JUMPDEST PUSH1 0x40 MLOAD DUP1 SWAP2 SUB SWAP1 REVERT JUMPDEST PUSH2 0x57C CALLER DUP4 PUSH2 0xCE2 JUMP JUMPDEST PUSH2 0x5A7 PUSH32 0x0 DUP5 DUP5 PUSH2 0xD40 JUMP JUMPDEST POP PUSH1 0x1 SWAP3 SWAP2 POP POP JUMP JUMPDEST PUSH0 CALLER PUSH2 0x5BD DUP6 DUP3 DUP6 PUSH2 0xDC1 JUMP JUMPDEST PUSH2 0x5C8 DUP6 DUP6 DUP6 PUSH2 0xE8E JUMP JUMPDEST PUSH1 0x1 SWAP2 POP POP JUMPDEST SWAP4 SWAP3 POP POP POP JUMP JUMPDEST PUSH0 CALLER ADDRESS DUP2 SUB PUSH2 0x612 JUMPI PUSH1 0x40 MLOAD PUSH32 0x96C6FD1E00000000000000000000000000000000000000000000000000000000 DUP2 MSTORE ADDRESS PUSH1 0x4 DUP3 ADD MSTORE PUSH1 0x24 ADD PUSH2 0x569 JUMP JUMPDEST ADDRESS PUSH20 0xFFFFFFFFFFFFFFFFFFFFFFFFFFFFFFFFFFFFFFFF DUP6 AND SUB PUSH2 0x679 JUMPI PUSH1 0x40 MLOAD PUSH32 0xEC442F0500000000000000000000000000000000000000000000000000000000 DUP2 MSTORE PUSH20 0xFFFFFFFFFFFFFFFFFFFFFFFFFFFFFFFFFFFFFFFF DUP6 AND PUSH1 0x4 DUP3 ADD MSTORE PUSH1 0x24 ADD PUSH2 0x569 JUMP JUMPDEST PUSH2 0x6A5 PUSH32 0x0 DUP3 ADDRESS DUP7 PUSH2 0xF37 JUMP JUMPDEST PUSH2 0x4DF DUP5 DUP5 PUSH2 0xF7D JUMP JUMPDEST PUSH0 PUSH2 0x6B8 PUSH2 0xFD7 JUMP JUMPDEST SWAP1 POP SWAP1 JUMP JUMPDEST PUSH2 0x6C5 PUSH2 0xBC2 JUMP JUMPDEST PUSH1 0x64 DUP4 PUSH2 0xFFFF AND GT ISZERO PUSH2 0x704 JUMPI PUSH1 0x40 MLOAD PUSH32 0x58D620B300000000000000000000000000000000000000000000000000000000 DUP2 MSTORE PUSH1 0x4 ADD PUSH1 0x40 MLOAD DUP1 SWAP2 SUB SWAP1 REVERT JUMPDEST PUSH1 0x1 DUP3 PUSH2 0xFFFF AND GT ISZERO PUSH2 0x743 JUMPI PUSH1 0x40 MLOAD PUSH32 0x58D620B300000000000000000000000000000000000000000000000000000000 DUP2 MSTORE PUSH1 0x4 ADD PUSH1 0x40 MLOAD DUP1 SWAP2 SUB SWAP1 REVERT JUMPDEST PUSH2 0x3E8 DUP2 PUSH2 0xFFFF AND GT ISZERO PUSH2 0x783 JUMPI PUSH1 0x40 MLOAD PUSH32 0x58D620B300000000000000000000000000000000000000000000000000000000 DUP2 MSTORE PUSH1 0x4 ADD PUSH1 0x40 MLOAD DUP1 SWAP2 SUB SWAP1 REVERT JUMPDEST DUP1 PUSH2 0xFFFF AND DUP3 PUSH2 0xFFFF AND GT ISZERO PUSH2 0x7C5 JUMPI PUSH1 0x40 MLOAD PUSH32 0x58D620B300000000000000000000000000000000000000000000000000000000 DUP2 MSTORE PUSH1 0x4 ADD PUSH1 0x40 MLOAD DUP1 SWAP2 SUB SWAP1 REVERT JUMPDEST PUSH1 0x8 DUP1 SLOAD PUSH32 0xFFFFFFFFFFFFFFFF00000000FFFFFFFFFFFFFFFFFFFFFFFFFFFFFFFFFFFFFFFF AND PUSH21 0x10000000000000000000000000000000000000000 PUSH2 0xFFFF DUP7 DUP2 AND DUP3 MUL PUSH32 0xFFFFFFFFFFFFFFFF0000FFFFFFFFFFFFFFFFFFFFFFFFFFFFFFFFFFFFFFFFFFFF AND SWAP3 SWAP1 SWAP3 OR PUSH23 0x100000000000000000000000000000000000000000000 DUP7 DUP5 AND DUP2 MUL SWAP2 SWAP1 SWAP2 OR PUSH32 0xFFFFFFFFFFFF0000FFFFFFFFFFFFFFFFFFFFFFFFFFFFFFFFFFFFFFFFFFFFFFFF AND PUSH25 0x1000000000000000000000000000000000000000000000000 DUP7 DUP6 AND DUP2 MUL SWAP2 SWAP1 SWAP2 OR SWAP5 DUP6 SWAP1 SSTORE PUSH1 0x40 DUP1 MLOAD SWAP4 DUP7 DIV DUP6 AND DUP5 MSTORE SWAP2 DUP6 DIV DUP5 AND PUSH1 0x20 DUP5 ADD MSTORE SWAP1 SWAP4 DIV SWAP1 SWAP2 AND SWAP2 DUP2 ADD SWAP2 SWAP1 SWAP2 MSTORE PUSH32 0xED207BDDB8CB5993139AF6ECF22C60DB0EFB4F27A841F54C9BDC9B52223EA576 SWAP1 PUSH1 0x60 ADD PUSH1 0x40 MLOAD DUP1 SWAP2 SUB SWAP1 LOG1 POP POP POP JUMP JUMPDEST PUSH2 0x8F5 PUSH2 0xBC2 JUMP JUMPDEST PUSH2 0x8FE PUSH0 PUSH2 0x110D JUMP JUMPDEST JUMP JUMPDEST PUSH20 0xFFFFFFFFFFFFFFFFFFFFFFFFFFFFFFFFFFFFFFFF DUP2 AND PUSH0 SWAP1 DUP2 MSTORE PUSH1 0x7 PUSH1 0x20 MSTORE PUSH1 0x40 DUP2 KECCAK256 SLOAD PUSH2 0x4FD JUMP JUMPDEST PUSH0 PUSH1 0x60 DUP1 PUSH0 DUP1 PUSH0 PUSH1 0x60 PUSH2 0x93B PUSH2 0x1183 JUMP JUMPDEST PUSH2 0x943 PUSH2 0x11B0 JUMP JUMPDEST PUSH1 0x40 DUP1 MLOAD PUSH0 DUP1 DUP3 MSTORE PUSH1 0x20 DUP3 ADD SWAP1 SWAP3 MSTORE PUSH32 0xF00000000000000000000000000000000000000000000000000000000000000 SWAP12 SWAP4 SWAP11 POP SWAP2 SWAP9 POP CHAINID SWAP8 POP ADDRESS SWAP7 POP SWAP5 POP SWAP3 POP SWAP1 POP JUMP JUMPDEST PUSH1 0x60 PUSH1 0x4 DUP1 SLOAD PUSH2 0x451 SWAP1 PUSH2 0x1E60 JUMP JUMPDEST PUSH0 CALLER PUSH2 0x4DF DUP2 DUP6 DUP6 PUSH2 0xE8E JUMP JUMPDEST DUP4 TIMESTAMP GT ISZERO PUSH2 0x9E1 JUMPI PUSH1 0x40 MLOAD PUSH32 0x6279130200000000000000000000000000000000000000000000000000000000 DUP2 MSTORE PUSH1 0x4 DUP2 ADD DUP6 SWAP1 MSTORE PUSH1 0x24 ADD PUSH2 0x569 JUMP JUMPDEST PUSH0 PUSH32 0x6E71EDAE12B1B97F4D1F60370FEF10105FA2FAAE0126114A169C64845D6126C9 DUP9 DUP9 DUP9 PUSH2 0xA39 DUP13 PUSH20 0xFFFFFFFFFFFFFFFFFFFFFFFFFFFFFFFFFFFFFFFF AND PUSH0 SWAP1 DUP2 MSTORE PUSH1 0x7 PUSH1 0x20 MSTORE PUSH1 0x40 SWAP1 KECCAK256 DUP1 SLOAD PUSH1 0x1 DUP2 ADD SWAP1 SWAP2 SSTORE SWAP1 JUMP JUMPDEST PUSH1 0x40 DUP1 MLOAD PUSH1 0x20 DUP2 ADD SWAP7 SWAP1 SWAP7 MSTORE PUSH20 0xFFFFFFFFFFFFFFFFFFFFFFFFFFFFFFFFFFFFFFFF SWAP5 DUP6 AND SWAP1 DUP7 ADD MSTORE SWAP3 SWAP1 SWAP2 AND PUSH1 0x60 DUP5 ADD MSTORE PUSH1 0x80 DUP4 ADD MSTORE PUSH1 0xA0 DUP3 ADD MSTORE PUSH1 0xC0 DUP2 ADD DUP7 SWAP1 MSTORE PUSH1 0xE0 ADD PUSH1 0x40 MLOAD PUSH1 0x20 DUP2 DUP4 SUB SUB DUP2 MSTORE SWAP1 PUSH1 0x40 MSTORE DUP1 MLOAD SWAP1 PUSH1 0x20 ADD KECCAK256 SWAP1 POP PUSH0 PUSH2 0xAA0 DUP3 PUSH2 0x11DD JUMP JUMPDEST SWAP1 POP PUSH0 PUSH2 0xAAF DUP3 DUP8 DUP8 DUP8 PUSH2 0x1224 JUMP JUMPDEST SWAP1 POP DUP10 PUSH20 0xFFFFFFFFFFFFFFFFFFFFFFFFFFFFFFFFFFFFFFFF AND DUP2 PUSH20 0xFFFFFFFFFFFFFFFFFFFFFFFFFFFFFFFFFFFFFFFF AND EQ PUSH2 0xB36 JUMPI PUSH1 0x40 MLOAD PUSH32 0x4B800E4600000000000000000000000000000000000000000000000000000000 DUP2 MSTORE PUSH20 0xFFFFFFFFFFFFFFFFFFFFFFFFFFFFFFFFFFFFFFFF DUP1 DUP4 AND PUSH1 0x4 DUP4 ADD MSTORE DUP12 AND PUSH1 0x24 DUP3 ADD MSTORE PUSH1 0x44 ADD PUSH2 0x569 JUMP JUMPDEST PUSH2 0xB41 DUP11 DUP11 DUP11 PUSH2 0xBB0 JUMP JUMPDEST POP POP POP POP POP POP POP POP POP POP JUMP JUMPDEST PUSH2 0xB55 PUSH2 0xBC2 JUMP JUMPDEST PUSH20 0xFFFFFFFFFFFFFFFFFFFFFFFFFFFFFFFFFFFFFFFF DUP2 AND PUSH2 0xBA4 JUMPI PUSH1 0x40 MLOAD PUSH32 0x1E4FBDF700000000000000000000000000000000000000000000000000000000 DUP2 MSTORE PUSH0 PUSH1 0x4 DUP3 ADD MSTORE PUSH1 0x24 ADD PUSH2 0x569 JUMP JUMPDEST PUSH2 0xBAD DUP2 PUSH2 0x110D JUMP JUMPDEST POP JUMP JUMPDEST PUSH2 0xBBD DUP4 DUP4 DUP4 PUSH1 0x1 PUSH2 0x1250 JUMP JUMPDEST POP POP POP JUMP JUMPDEST PUSH1 0x8 SLOAD PUSH20 0xFFFFFFFFFFFFFFFFFFFFFFFFFFFFFFFFFFFFFFFF AND CALLER EQ PUSH2 0x8FE JUMPI PUSH1 0x40 MLOAD PUSH32 0x118CDAA700000000000000000000000000000000000000000000000000000000 DUP2 MSTORE CALLER PUSH1 0x4 DUP3 ADD MSTORE PUSH1 0x24 ADD PUSH2 0x569 JUMP JUMPDEST PUSH0 DUP1 PUSH2 0xC20 PUSH1 0x2 SLOAD SWAP1 JUMP JUMPDEST PUSH1 0x40 MLOAD PUSH32 0x70A0823100000000000000000000000000000000000000000000000000000000 DUP2 MSTORE ADDRESS PUSH1 0x4 DUP3 ADD MSTORE PUSH32 0x0 PUSH20 0xFFFFFFFFFFFFFFFFFFFFFFFFFFFFFFFFFFFFFFFF AND SWAP1 PUSH4 0x70A08231 SWAP1 PUSH1 0x24 ADD PUSH1 0x20 PUSH1 0x40 MLOAD DUP1 DUP4 SUB DUP2 DUP7 GAS STATICCALL ISZERO DUP1 ISZERO PUSH2 0xCA8 JUMPI RETURNDATASIZE PUSH0 DUP1 RETURNDATACOPY RETURNDATASIZE PUSH0 REVERT JUMPDEST POP POP POP POP PUSH1 0x40 MLOAD RETURNDATASIZE PUSH1 0x1F NOT PUSH1 0x1F DUP3 ADD AND DUP3 ADD DUP1 PUSH1 0x40 MSTORE POP DUP2 ADD SWAP1 PUSH2 0xCCC SWAP2 SWAP1 PUSH2 0x1EB1 JUMP JUMPDEST PUSH2 0xCD6 SWAP2 SWAP1 PUSH2 0x1EF5 JUMP JUMPDEST SWAP1 POP PUSH2 0x4E5 DUP4 DUP3 PUSH2 0xF7D JUMP JUMPDEST PUSH20 0xFFFFFFFFFFFFFFFFFFFFFFFFFFFFFFFFFFFFFFFF DUP3 AND PUSH2 0xD31 JUMPI PUSH1 0x40 MLOAD PUSH32 0x96C6FD1E00000000000000000000000000000000000000000000000000000000 DUP2 MSTORE PUSH0 PUSH1 0x4 DUP3 ADD MSTORE PUSH1 0x24 ADD PUSH2 0x569 JUMP JUMPDEST PUSH2 0xD3C DUP3 PUSH0 DUP4 PUSH2 0x1395 JUMP JUMPDEST POP POP JUMP JUMPDEST PUSH1 0x40 MLOAD PUSH20 0xFFFFFFFFFFFFFFFFFFFFFFFFFFFFFFFFFFFFFFFF DUP4 DUP2 AND PUSH1 0x24 DUP4 ADD MSTORE PUSH1 0x44 DUP3 ADD DUP4 SWAP1 MSTORE PUSH2 0xBBD SWAP2 DUP6 SWAP2 DUP3 AND SWAP1 PUSH4 0xA9059CBB SWAP1 PUSH1 0x64 ADD JUMPDEST PUSH1 0x40 MLOAD PUSH1 0x20 DUP2 DUP4 SUB SUB DUP2 MSTORE SWAP1 PUSH1 0x40 MSTORE SWAP2 POP PUSH1 0xE0 SHL PUSH1 0x20 DUP3 ADD DUP1 MLOAD PUSH28 0xFFFFFFFFFFFFFFFFFFFFFFFFFFFFFFFFFFFFFFFFFFFFFFFFFFFFFFFF DUP4 DUP2 DUP4 AND OR DUP4 MSTORE POP POP POP POP PUSH2 0x14C2 JUMP JUMPDEST PUSH20 0xFFFFFFFFFFFFFFFFFFFFFFFFFFFFFFFFFFFFFFFF DUP4 DUP2 AND PUSH0 SWAP1 DUP2 MSTORE PUSH1 0x1 PUSH1 0x20 SWAP1 DUP2 MSTORE PUSH1 0x40 DUP1 DUP4 KECCAK256 SWAP4 DUP7 AND DUP4 MSTORE SWAP3 SWAP1 MSTORE KECCAK256 SLOAD PUSH32 0xFFFFFFFFFFFFFFFFFFFFFFFFFFFFFFFFFFFFFFFFFFFFFFFFFFFFFFFFFFFFFFFF DUP2 EQ PUSH2 0xE88 JUMPI DUP2 DUP2 LT ISZERO PUSH2 0xE7A JUMPI PUSH1 0x40 MLOAD PUSH32 0xFB8F41B200000000000000000000000000000000000000000000000000000000 DUP2 MSTORE PUSH20 0xFFFFFFFFFFFFFFFFFFFFFFFFFFFFFFFFFFFFFFFF DUP5 AND PUSH1 0x4 DUP3 ADD MSTORE PUSH1 0x24 DUP2 ADD DUP3 SWAP1 MSTORE PUSH1 0x44 DUP2 ADD DUP4 SWAP1 MSTORE PUSH1 0x64 ADD PUSH2 0x569 JUMP JUMPDEST PUSH2 0xE88 DUP5 DUP5 DUP5 DUP5 SUB PUSH0 PUSH2 0x1250 JUMP JUMPDEST POP POP POP POP JUMP JUMPDEST PUSH20 0xFFFFFFFFFFFFFFFFFFFFFFFFFFFFFFFFFFFFFFFF DUP4 AND PUSH2 0xEDD JUMPI PUSH1 0x40 MLOAD PUSH32 0x96C6FD1E00000000000000000000000000000000000000000000000000000000 DUP2 MSTORE PUSH0 PUSH1 0x4 DUP3 ADD MSTORE PUSH1 0x24 ADD PUSH2 0x569 JUMP JUMPDEST PUSH20 0xFFFFFFFFFFFFFFFFFFFFFFFFFFFFFFFFFFFFFFFF DUP3 AND PUSH2 0xF2C JUMPI PUSH1 0x40 MLOAD PUSH32 0xEC442F0500000000000000000000000000000000000000000000000000000000 DUP2 MSTORE PUSH0 PUSH1 0x4 DUP3 ADD MSTORE PUSH1 0x24 ADD PUSH2 0x569 JUMP JUMPDEST PUSH2 0xBBD DUP4 DUP4 DUP4 PUSH2 0x1395 JUMP JUMPDEST PUSH1 0x40 MLOAD PUSH20 0xFFFFFFFFFFFFFFFFFFFFFFFFFFFFFFFFFFFFFFFF DUP5 DUP2 AND PUSH1 0x24 DUP4 ADD MSTORE DUP4 DUP2 AND PUSH1 0x44 DUP4 ADD MSTORE PUSH1 0x64 DUP3 ADD DUP4 SWAP1 MSTORE PUSH2 0xE88 SWAP2 DUP7 SWAP2 DUP3 AND SWAP1 PUSH4 0x23B872DD SWAP1 PUSH1 0x84 ADD PUSH2 0xD7A JUMP JUMPDEST PUSH20 0xFFFFFFFFFFFFFFFFFFFFFFFFFFFFFFFFFFFFFFFF DUP3 AND PUSH2 0xFCC JUMPI PUSH1 0x40 MLOAD PUSH32 0xEC442F0500000000000000000000000000000000000000000000000000000000 DUP2 MSTORE PUSH0 PUSH1 0x4 DUP3 ADD MSTORE PUSH1 0x24 ADD PUSH2 0x569 JUMP JUMPDEST PUSH2 0xD3C PUSH0 DUP4 DUP4 PUSH2 0x1395 JUMP JUMPDEST PUSH0 ADDRESS PUSH20 0xFFFFFFFFFFFFFFFFFFFFFFFFFFFFFFFFFFFFFFFF PUSH32 0x0 AND EQ DUP1 ISZERO PUSH2 0x103C JUMPI POP PUSH32 0x0 CHAINID EQ JUMPDEST ISZERO PUSH2 0x1066 JUMPI POP PUSH32 0x0 SWAP1 JUMP JUMPDEST PUSH2 0x6B8 PUSH1 0x40 DUP1 MLOAD PUSH32 0x8B73C3C69BB8FE3D512ECC4CF759CC79239F7B179B0FFACAA9A75D522B39400F PUSH1 0x20 DUP3 ADD MSTORE PUSH32 0x0 SWAP2 DUP2 ADD SWAP2 SWAP1 SWAP2 MSTORE PUSH32 0x0 PUSH1 0x60 DUP3 ADD MSTORE CHAINID PUSH1 0x80 DUP3 ADD MSTORE ADDRESS PUSH1 0xA0 DUP3 ADD MSTORE PUSH0 SWAP1 PUSH1 0xC0 ADD PUSH1 0x40 MLOAD PUSH1 0x20 DUP2 DUP4 SUB SUB DUP2 MSTORE SWAP1 PUSH1 0x40 MSTORE DUP1 MLOAD SWAP1 PUSH1 0x20 ADD KECCAK256 SWAP1 POP SWAP1 JUMP JUMPDEST PUSH1 0x8 DUP1 SLOAD PUSH20 0xFFFFFFFFFFFFFFFFFFFFFFFFFFFFFFFFFFFFFFFF DUP4 DUP2 AND PUSH32 0xFFFFFFFFFFFFFFFFFFFFFFFF0000000000000000000000000000000000000000 DUP4 AND DUP2 OR SWAP1 SWAP4 SSTORE PUSH1 0x40 MLOAD SWAP2 AND SWAP2 SWAP1 DUP3 SWAP1 PUSH32 0x8BE0079C531659141344CD1FD0A4F28419497F9722A3DAAFE3B4186F6B6457E0 SWAP1 PUSH0 SWAP1 LOG3 POP POP JUMP JUMPDEST PUSH1 0x60 PUSH2 0x6B8 PUSH32 0x0 PUSH1 0x5 PUSH2 0x1556 JUMP JUMPDEST PUSH1 0x60 PUSH2 0x6B8 PUSH32 0x0 PUSH1 0x6 PUSH2 0x1556 JUMP JUMPDEST PUSH0 PUSH2 0x4FD PUSH2 0x11E9 PUSH2 0xFD7 JUMP JUMPDEST DUP4 PUSH1 0x40 MLOAD PUSH32 0x1901000000000000000000000000000000000000000000000000000000000000 DUP2 MSTORE PUSH1 0x2 DUP2 ADD SWAP3 SWAP1 SWAP3 MSTORE PUSH1 0x22 DUP3 ADD MSTORE PUSH1 0x42 SWAP1 KECCAK256 SWAP1 JUMP JUMPDEST PUSH0 DUP1 PUSH0 DUP1 PUSH2 0x1234 DUP9 DUP9 DUP9 DUP9 PUSH2 0x15FF JUMP JUMPDEST SWAP3 POP SWAP3 POP SWAP3 POP PUSH2 0x1244 DUP3 DUP3 PUSH2 0x16F2 JUMP JUMPDEST POP SWAP1 SWAP7 SWAP6 POP POP POP POP POP POP JUMP JUMPDEST PUSH20 0xFFFFFFFFFFFFFFFFFFFFFFFFFFFFFFFFFFFFFFFF DUP5 AND PUSH2 0x129F JUMPI PUSH1 0x40 MLOAD PUSH32 0xE602DF0500000000000000000000000000000000000000000000000000000000 DUP2 MSTORE PUSH0 PUSH1 0x4 DUP3 ADD MSTORE PUSH1 0x24 ADD PUSH2 0x569 JUMP JUMPDEST PUSH20 0xFFFFFFFFFFFFFFFFFFFFFFFFFFFFFFFFFFFFFFFF DUP4 AND PUSH2 0x12EE JUMPI PUSH1 0x40 MLOAD PUSH32 0x94280D6200000000000000000000000000000000000000000000000000000000 DUP2 MSTORE PUSH0 PUSH1 0x4 DUP3 ADD MSTORE PUSH1 0x24 ADD PUSH2 0x569 JUMP JUMPDEST PUSH20 0xFFFFFFFFFFFFFFFFFFFFFFFFFFFFFFFFFFFFFFFF DUP1 DUP6 AND PUSH0 SWAP1 DUP2 MSTORE PUSH1 0x1 PUSH1 0x20 SWAP1 DUP2 MSTORE PUSH1 0x40 DUP1 DUP4 KECCAK256 SWAP4 DUP8 AND DUP4 MSTORE SWAP3 SWAP1 MSTORE KECCAK256 DUP3 SWAP1 SSTORE DUP1 ISZERO PUSH2 0xE88 JUMPI DUP3 PUSH20 0xFFFFFFFFFFFFFFFFFFFFFFFFFFFFFFFFFFFFFFFF AND DUP5 PUSH20 0xFFFFFFFFFFFFFFFFFFFFFFFFFFFFFFFFFFFFFFFF AND PUSH32 0x8C5BE1E5EBEC7D5BD14F71427D1E84F3DD0314C0F7B2291E5B200AC8C7C3B925 DUP5 PUSH1 0x40 MLOAD PUSH2 0x1387 SWAP2 DUP2 MSTORE PUSH1 0x20 ADD SWAP1 JUMP JUMPDEST PUSH1 0x40 MLOAD DUP1 SWAP2 SUB SWAP1 LOG3 POP POP POP POP JUMP JUMPDEST PUSH20 0xFFFFFFFFFFFFFFFFFFFFFFFFFFFFFFFFFFFFFFFF DUP4 AND ISZERO DUP1 PUSH2 0x13CC JUMPI POP PUSH20 0xFFFFFFFFFFFFFFFFFFFFFFFFFFFFFFFFFFFFFFFF DUP3 AND ISZERO JUMPDEST ISZERO PUSH2 0x13DC JUMPI PUSH2 0xBBD DUP4 DUP4 DUP4 PUSH2 0x17F5 JUMP JUMPDEST PUSH1 0x8 SLOAD PUSH2 0xFFFF PUSH21 0x10000000000000000000000000000000000000000 DUP3 DIV DUP2 AND SWAP2 PUSH23 0x100000000000000000000000000000000000000000000 DUP2 DIV DUP3 AND SWAP2 PUSH25 0x1000000000000000000000000000000000000000000000000 SWAP1 SWAP2 DIV AND PUSH0 PUSH2 0x2710 PUSH2 0x1446 DUP6 DUP8 PUSH2 0x1F08 JUMP JUMPDEST PUSH2 0x1450 SWAP2 SWAP1 PUSH2 0x1F1F JUMP JUMPDEST SWAP1 POP DUP3 DUP2 LT ISZERO PUSH2 0x1461 JUMPI POP DUP2 PUSH2 0x146C JUMP JUMPDEST DUP2 DUP2 GT ISZERO PUSH2 0x146C JUMPI POP DUP1 JUMPDEST DUP5 DUP2 LT PUSH2 0x1476 JUMPI POP PUSH0 JUMPDEST PUSH2 0x148A DUP8 DUP8 PUSH2 0x1485 DUP5 DUP10 PUSH2 0x1EF5 JUMP JUMPDEST PUSH2 0x17F5 JUMP JUMPDEST DUP1 ISZERO PUSH2 0x14B9 JUMPI PUSH2 0x14B9 DUP8 PUSH2 0x14B3 PUSH1 0x8 SLOAD PUSH20 0xFFFFFFFFFFFFFFFFFFFFFFFFFFFFFFFFFFFFFFFF AND SWAP1 JUMP JUMPDEST DUP4 PUSH2 0x17F5 JUMP JUMPDEST POP POP POP POP POP POP POP JUMP JUMPDEST PUSH0 PUSH2 0x14E3 PUSH20 0xFFFFFFFFFFFFFFFFFFFFFFFFFFFFFFFFFFFFFFFF DUP5 AND DUP4 PUSH2 0x199C JUMP JUMPDEST SWAP1 POP DUP1 MLOAD PUSH0 EQ ISZERO DUP1 ISZERO PUSH2 0x1507 JUMPI POP DUP1 DUP1 PUSH1 0x20 ADD SWAP1 MLOAD DUP2 ADD SWAP1 PUSH2 0x1505 SWAP2 SWAP1 PUSH2 0x1F57 JUMP JUMPDEST ISZERO JUMPDEST ISZERO PUSH2 0xBBD JUMPI PUSH1 0x40 MLOAD PUSH32 0x5274AFE700000000000000000000000000000000000000000000000000000000 DUP2 MSTORE PUSH20 0xFFFFFFFFFFFFFFFFFFFFFFFFFFFFFFFFFFFFFFFF DUP5 AND PUSH1 0x4 DUP3 ADD MSTORE PUSH1 0x24 ADD PUSH2 0x569 JUMP JUMPDEST PUSH1 0x60 PUSH1 0xFF DUP4 EQ PUSH2 0x1570 JUMPI PUSH2 0x1569 DUP4 PUSH2 0x19A9 JUMP JUMPDEST SWAP1 POP PUSH2 0x4E5 JUMP JUMPDEST DUP2 DUP1 SLOAD PUSH2 0x157C SWAP1 PUSH2 0x1E60 JUMP JUMPDEST DUP1 PUSH1 0x1F ADD PUSH1 0x20 DUP1 SWAP2 DIV MUL PUSH1 0x20 ADD PUSH1 0x40 MLOAD SWAP1 DUP2 ADD PUSH1 0x40 MSTORE DUP1 SWAP3 SWAP2 SWAP1 DUP2 DUP2 MSTORE PUSH1 0x20 ADD DUP3 DUP1 SLOAD PUSH2 0x15A8 SWAP1 PUSH2 0x1E60 JUMP JUMPDEST DUP1 ISZERO PUSH2 0x15F3 JUMPI DUP1 PUSH1 0x1F LT PUSH2 0x15CA JUMPI PUSH2 0x100 DUP1 DUP4 SLOAD DIV MUL DUP4 MSTORE SWAP2 PUSH1 0x20 ADD SWAP2 PUSH2 0x15F3 JUMP JUMPDEST DUP3 ADD SWAP2 SWAP1 PUSH0 MSTORE PUSH1 0x20 PUSH0 KECCAK256 SWAP1 JUMPDEST DUP2 SLOAD DUP2 MSTORE SWAP1 PUSH1 0x1 ADD SWAP1 PUSH1 0x20 ADD DUP1 DUP4 GT PUSH2 0x15D6 JUMPI DUP3 SWAP1 SUB PUSH1 0x1F AND DUP3 ADD SWAP2 JUMPDEST POP POP POP POP POP SWAP1 POP PUSH2 0x4E5 JUMP JUMPDEST PUSH0 DUP1 DUP1 PUSH32 0x7FFFFFFFFFFFFFFFFFFFFFFFFFFFFFFF5D576E7357A4501DDFE92F46681B20A0 DUP5 GT ISZERO PUSH2 0x1638 JUMPI POP PUSH0 SWAP2 POP PUSH1 0x3 SWAP1 POP DUP3 PUSH2 0x16E8 JUMP JUMPDEST PUSH1 0x40 DUP1 MLOAD PUSH0 DUP1 DUP3 MSTORE PUSH1 0x20 DUP3 ADD DUP1 DUP5 MSTORE DUP11 SWAP1 MSTORE PUSH1 0xFF DUP10 AND SWAP3 DUP3 ADD SWAP3 SWAP1 SWAP3 MSTORE PUSH1 0x60 DUP2 ADD DUP8 SWAP1 MSTORE PUSH1 0x80 DUP2 ADD DUP7 SWAP1 MSTORE PUSH1 0x1 SWAP1 PUSH1 0xA0 ADD PUSH1 0x20 PUSH1 0x40 MLOAD PUSH1 0x20 DUP2 SUB SWAP1 DUP1 DUP5 SUB SWAP1 DUP6 GAS STATICCALL ISZERO DUP1 ISZERO PUSH2 0x1689 JUMPI RETURNDATASIZE PUSH0 DUP1 RETURNDATACOPY RETURNDATASIZE PUSH0 REVERT JUMPDEST POP POP PUSH1 0x40 MLOAD PUSH32 0xFFFFFFFFFFFFFFFFFFFFFFFFFFFFFFFFFFFFFFFFFFFFFFFFFFFFFFFFFFFFFFE0 ADD MLOAD SWAP2 POP POP PUSH20 0xFFFFFFFFFFFFFFFFFFFFFFFFFFFFFFFFFFFFFFFF DUP2 AND PUSH2 0x16DF JUMPI POP PUSH0 SWAP3 POP PUSH1 0x1 SWAP2 POP DUP3 SWAP1 POP PUSH2 0x16E8 JUMP JUMPDEST SWAP3 POP PUSH0 SWAP2 POP DUP2 SWAP1 POP JUMPDEST SWAP5 POP SWAP5 POP SWAP5 SWAP2 POP POP JUMP JUMPDEST PUSH0 DUP3 PUSH1 0x3 DUP2 GT ISZERO PUSH2 0x1705 JUMPI PUSH2 0x1705 PUSH2 0x1F76 JUMP JUMPDEST SUB PUSH2 0x170E JUMPI POP POP JUMP JUMPDEST PUSH1 0x1 DUP3 PUSH1 0x3 DUP2 GT ISZERO PUSH2 0x1722 JUMPI PUSH2 0x1722 PUSH2 0x1F76 JUMP JUMPDEST SUB PUSH2 0x1759 JUMPI PUSH1 0x40 MLOAD PUSH32 0xF645EEDF00000000000000000000000000000000000000000000000000000000 DUP2 MSTORE PUSH1 0x4 ADD PUSH1 0x40 MLOAD DUP1 SWAP2 SUB SWAP1 REVERT JUMPDEST PUSH1 0x2 DUP3 PUSH1 0x3 DUP2 GT ISZERO PUSH2 0x176D JUMPI PUSH2 0x176D PUSH2 0x1F76 JUMP JUMPDEST SUB PUSH2 0x17A7 JUMPI PUSH1 0x40 MLOAD PUSH32 0xFCE698F700000000000000000000000000000000000000000000000000000000 DUP2 MSTORE PUSH1 0x4 DUP2 ADD DUP3 SWAP1 MSTORE PUSH1 0x24 ADD PUSH2 0x569 JUMP JUMPDEST PUSH1 0x3 DUP3 PUSH1 0x3 DUP2 GT ISZERO PUSH2 0x17BB JUMPI PUSH2 0x17BB PUSH2 0x1F76 JUMP JUMPDEST SUB PUSH2 0xD3C JUMPI PUSH1 0x40 MLOAD PUSH32 0xD78BCE0C00000000000000000000000000000000000000000000000000000000 DUP2 MSTORE PUSH1 0x4 DUP2 ADD DUP3 SWAP1 MSTORE PUSH1 0x24 ADD PUSH2 0x569 JUMP JUMPDEST PUSH20 0xFFFFFFFFFFFFFFFFFFFFFFFFFFFFFFFFFFFFFFFF DUP4 AND PUSH2 0x182C JUMPI DUP1 PUSH1 0x2 PUSH0 DUP3 DUP3 SLOAD PUSH2 0x1821 SWAP2 SWAP1 PUSH2 0x1FA3 JUMP JUMPDEST SWAP1 SWAP2 SSTORE POP PUSH2 0x18DC SWAP1 POP JUMP JUMPDEST PUSH20 0xFFFFFFFFFFFFFFFFFFFFFFFFFFFFFFFFFFFFFFFF DUP4 AND PUSH0 SWAP1 DUP2 MSTORE PUSH1 0x20 DUP2 SWAP1 MSTORE PUSH1 0x40 SWAP1 KECCAK256 SLOAD DUP2 DUP2 LT ISZERO PUSH2 0x18B1 JUMPI PUSH1 0x40 MLOAD PUSH32 0xE450D38C00000000000000000000000000000000000000000000000000000000 DUP2 MSTORE PUSH20 0xFFFFFFFFFFFFFFFFFFFFFFFFFFFFFFFFFFFFFFFF DUP6 AND PUSH1 0x4 DUP3 ADD MSTORE PUSH1 0x24 DUP2 ADD DUP3 SWAP1 MSTORE PUSH1 0x44 DUP2 ADD DUP4 SWAP1 MSTORE PUSH1 0x64 ADD PUSH2 0x569 JUMP JUMPDEST PUSH20 0xFFFFFFFFFFFFFFFFFFFFFFFFFFFFFFFFFFFFFFFF DUP5 AND PUSH0 SWAP1 DUP2 MSTORE PUSH1 0x20 DUP2 SWAP1 MSTORE PUSH1 0x40 SWAP1 KECCAK256 SWAP1 DUP3 SWAP1 SUB SWAP1 SSTORE JUMPDEST PUSH20 0xFFFFFFFFFFFFFFFFFFFFFFFFFFFFFFFFFFFFFFFF DUP3 AND PUSH2 0x1905 JUMPI PUSH1 0x2 DUP1 SLOAD DUP3 SWAP1 SUB SWAP1 SSTORE PUSH2 0x1930 JUMP JUMPDEST PUSH20 0xFFFFFFFFFFFFFFFFFFFFFFFFFFFFFFFFFFFFFFFF DUP3 AND PUSH0 SWAP1 DUP2 MSTORE PUSH1 0x20 DUP2 SWAP1 MSTORE PUSH1 0x40 SWAP1 KECCAK256 DUP1 SLOAD DUP3 ADD SWAP1 SSTORE JUMPDEST DUP2 PUSH20 0xFFFFFFFFFFFFFFFFFFFFFFFFFFFFFFFFFFFFFFFF AND DUP4 PUSH20 0xFFFFFFFFFFFFFFFFFFFFFFFFFFFFFFFFFFFFFFFF AND PUSH32 0xDDF252AD1BE2C89B69C2B068FC378DAA952BA7F163C4A11628F55A4DF523B3EF DUP4 PUSH1 0x40 MLOAD PUSH2 0x198F SWAP2 DUP2 MSTORE PUSH1 0x20 ADD SWAP1 JUMP JUMPDEST PUSH1 0x40 MLOAD DUP1 SWAP2 SUB SWAP1 LOG3 POP POP POP JUMP JUMPDEST PUSH1 0x60 PUSH2 0x5CE DUP4 DUP4 PUSH0 PUSH2 0x19E6 JUMP JUMPDEST PUSH1 0x60 PUSH0 PUSH2 0x19B5 DUP4 PUSH2 0x1AA5 JUMP JUMPDEST PUSH1 0x40 DUP1 MLOAD PUSH1 0x20 DUP1 DUP3 MSTORE DUP2 DUP4 ADD SWAP1 SWAP3 MSTORE SWAP2 SWAP3 POP PUSH0 SWAP2 SWAP1 PUSH1 0x20 DUP3 ADD DUP2 DUP1 CALLDATASIZE DUP4 CALLDATACOPY POP POP POP SWAP2 DUP3 MSTORE POP PUSH1 0x20 DUP2 ADD SWAP3 SWAP1 SWAP3 MSTORE POP SWAP1 JUMP JUMPDEST PUSH1 0x60 DUP2 SELFBALANCE LT ISZERO PUSH2 0x1A24 JUMPI PUSH1 0x40 MLOAD PUSH32 0xCD78605900000000000000000000000000000000000000000000000000000000 DUP2 MSTORE ADDRESS PUSH1 0x4 DUP3 ADD MSTORE PUSH1 0x24 ADD PUSH2 0x569 JUMP JUMPDEST PUSH0 DUP1 DUP6 PUSH20 0xFFFFFFFFFFFFFFFFFFFFFFFFFFFFFFFFFFFFFFFF AND DUP5 DUP7 PUSH1 0x40 MLOAD PUSH2 0x1A4C SWAP2 SWAP1 PUSH2 0x1FB6 JUMP JUMPDEST PUSH0 PUSH1 0x40 MLOAD DUP1 DUP4 SUB DUP2 DUP6 DUP8 GAS CALL SWAP3 POP POP POP RETURNDATASIZE DUP1 PUSH0 DUP2 EQ PUSH2 0x1A86 JUMPI PUSH1 0x40 MLOAD SWAP2 POP PUSH1 0x1F NOT PUSH1 0x3F RETURNDATASIZE ADD AND DUP3 ADD PUSH1 0x40 MSTORE RETURNDATASIZE DUP3 MSTORE RETURNDATASIZE PUSH0 PUSH1 0x20 DUP5 ADD RETURNDATACOPY PUSH2 0x1A8B JUMP JUMPDEST PUSH1 0x60 SWAP2 POP JUMPDEST POP SWAP2 POP SWAP2 POP PUSH2 0x1A9B DUP7 DUP4 DUP4 PUSH2 0x1AE5 JUMP JUMPDEST SWAP7 SWAP6 POP POP POP POP POP POP JUMP JUMPDEST PUSH0 PUSH1 0xFF DUP3 AND PUSH1 0x1F DUP2 GT ISZERO PUSH2 0x4E5 JUMPI PUSH1 0x40 MLOAD PUSH32 0xB3512B0C00000000000000000000000000000000000000000000000000000000 DUP2 MSTORE PUSH1 0x4 ADD PUSH1 0x40 MLOAD DUP1 SWAP2 SUB SWAP1 REVERT JUMPDEST PUSH1 0x60 DUP3 PUSH2 0x1AFA JUMPI PUSH2 0x1AF5 DUP3 PUSH2 0x1B74 JUMP JUMPDEST PUSH2 0x5CE JUMP JUMPDEST DUP2 MLOAD ISZERO DUP1 ISZERO PUSH2 0x1B1E JUMPI POP PUSH20 0xFFFFFFFFFFFFFFFFFFFFFFFFFFFFFFFFFFFFFFFF DUP5 AND EXTCODESIZE ISZERO JUMPDEST ISZERO PUSH2 0x1B6D JUMPI PUSH1 0x40 MLOAD PUSH32 0x9996B31500000000000000000000000000000000000000000000000000000000 DUP2 MSTORE PUSH20 0xFFFFFFFFFFFFFFFFFFFFFFFFFFFFFFFFFFFFFFFF DUP6 AND PUSH1 0x4 DUP3 ADD MSTORE PUSH1 0x24 ADD PUSH2 0x569 JUMP JUMPDEST POP DUP1 PUSH2 0x5CE JUMP JUMPDEST DUP1 MLOAD ISZERO PUSH2 0x1B84 JUMPI DUP1 MLOAD DUP1 DUP3 PUSH1 0x20 ADD REVERT JUMPDEST PUSH1 0x40 MLOAD PUSH32 0x1425EA4200000000000000000000000000000000000000000000000000000000 DUP2 MSTORE PUSH1 0x4 ADD PUSH1 0x40 MLOAD DUP1 SWAP2 SUB SWAP1 REVERT JUMPDEST PUSH0 DUP2 MLOAD DUP1 DUP5 MSTORE DUP1 PUSH1 0x20 DUP5 ADD PUSH1 0x20 DUP7 ADD MCOPY PUSH0 PUSH1 0x20 DUP3 DUP7 ADD ADD MSTORE PUSH1 0x20 PUSH32 0xFFFFFFFFFFFFFFFFFFFFFFFFFFFFFFFFFFFFFFFFFFFFFFFFFFFFFFFFFFFFFFE0 PUSH1 0x1F DUP4 ADD AND DUP6 ADD ADD SWAP2 POP POP SWAP3 SWAP2 POP POP JUMP JUMPDEST PUSH1 0x20 DUP2 MSTORE PUSH0 PUSH2 0x5CE PUSH1 0x20 DUP4 ADD DUP5 PUSH2 0x1BB6 JUMP JUMPDEST DUP1 CALLDATALOAD PUSH20 0xFFFFFFFFFFFFFFFFFFFFFFFFFFFFFFFFFFFFFFFF DUP2 AND DUP2 EQ PUSH2 0x500 JUMPI PUSH0 DUP1 REVERT JUMPDEST PUSH0 DUP1 PUSH1 0x40 DUP4 DUP6 SUB SLT ISZERO PUSH2 0x1C48 JUMPI PUSH0 DUP1 REVERT JUMPDEST PUSH2 0x1C51 DUP4 PUSH2 0x1C14 JUMP JUMPDEST SWAP5 PUSH1 0x20 SWAP4 SWAP1 SWAP4 ADD CALLDATALOAD SWAP4 POP POP POP JUMP JUMPDEST PUSH0 PUSH1 0x20 DUP3 DUP5 SUB SLT ISZERO PUSH2 0x1C6F JUMPI PUSH0 DUP1 REVERT JUMPDEST PUSH2 0x5CE DUP3 PUSH2 0x1C14 JUMP JUMPDEST PUSH0 DUP1 PUSH0 PUSH1 0x60 DUP5 DUP7 SUB SLT ISZERO PUSH2 0x1C8A JUMPI PUSH0 DUP1 REVERT JUMPDEST PUSH2 0x1C93 DUP5 PUSH2 0x1C14 JUMP JUMPDEST SWAP3 POP PUSH2 0x1CA1 PUSH1 0x20 DUP6 ADD PUSH2 0x1C14 JUMP JUMPDEST SWAP2 POP PUSH1 0x40 DUP5 ADD CALLDATALOAD SWAP1 POP SWAP3 POP SWAP3 POP SWAP3 JUMP JUMPDEST DUP1 CALLDATALOAD PUSH2 0xFFFF DUP2 AND DUP2 EQ PUSH2 0x500 JUMPI PUSH0 DUP1 REVERT JUMPDEST PUSH0 DUP1 PUSH0 PUSH1 0x60 DUP5 DUP7 SUB SLT ISZERO PUSH2 0x1CD4 JUMPI PUSH0 DUP1 REVERT JUMPDEST PUSH2 0x1CDD DUP5 PUSH2 0x1CB1 JUMP JUMPDEST SWAP3 POP PUSH2 0x1CEB PUSH1 0x20 DUP6 ADD PUSH2 0x1CB1 JUMP JUMPDEST SWAP2 POP PUSH2 0x1CF9 PUSH1 0x40 DUP6 ADD PUSH2 0x1CB1 JUMP JUMPDEST SWAP1 POP SWAP3 POP SWAP3 POP SWAP3 JUMP JUMPDEST PUSH32 0xFF00000000000000000000000000000000000000000000000000000000000000 DUP9 AND DUP2 MSTORE PUSH0 PUSH1 0x20 PUSH1 0xE0 PUSH1 0x20 DUP5 ADD MSTORE PUSH2 0x1D3E PUSH1 0xE0 DUP5 ADD DUP11 PUSH2 0x1BB6 JUMP JUMPDEST DUP4 DUP2 SUB PUSH1 0x40 DUP6 ADD MSTORE PUSH2 0x1D50 DUP2 DUP11 PUSH2 0x1BB6 JUMP JUMPDEST PUSH1 0x60 DUP6 ADD DUP10 SWAP1 MSTORE PUSH20 0xFFFFFFFFFFFFFFFFFFFFFFFFFFFFFFFFFFFFFFFF DUP9 AND PUSH1 0x80 DUP7 ADD MSTORE PUSH1 0xA0 DUP6 ADD DUP8 SWAP1 MSTORE DUP5 DUP2 SUB PUSH1 0xC0 DUP7 ADD MSTORE DUP6 MLOAD DUP1 DUP3 MSTORE PUSH1 0x20 DUP1 DUP9 ADD SWAP4 POP SWAP1 SWAP2 ADD SWAP1 PUSH0 JUMPDEST DUP2 DUP2 LT ISZERO PUSH2 0x1DB0 JUMPI DUP4 MLOAD DUP4 MSTORE SWAP3 DUP5 ADD SWAP3 SWAP2 DUP5 ADD SWAP2 PUSH1 0x1 ADD PUSH2 0x1D94 JUMP JUMPDEST POP SWAP1 SWAP13 SWAP12 POP POP POP POP POP POP POP POP POP POP POP POP JUMP JUMPDEST PUSH0 DUP1 PUSH0 DUP1 PUSH0 DUP1 PUSH0 PUSH1 0xE0 DUP9 DUP11 SUB SLT ISZERO PUSH2 0x1DD8 JUMPI PUSH0 DUP1 REVERT JUMPDEST PUSH2 0x1DE1 DUP9 PUSH2 0x1C14 JUMP JUMPDEST SWAP7 POP PUSH2 0x1DEF PUSH1 0x20 DUP10 ADD PUSH2 0x1C14 JUMP JUMPDEST SWAP6 POP PUSH1 0x40 DUP9 ADD CALLDATALOAD SWAP5 POP PUSH1 0x60 DUP9 ADD CALLDATALOAD SWAP4 POP PUSH1 0x80 DUP9 ADD CALLDATALOAD PUSH1 0xFF DUP2 AND DUP2 EQ PUSH2 0x1E12 JUMPI PUSH0 DUP1 REVERT JUMPDEST SWAP7 SWAP10 SWAP6 SWAP9 POP SWAP4 SWAP7 SWAP3 SWAP6 SWAP5 PUSH1 0xA0 DUP5 ADD CALLDATALOAD SWAP5 POP PUSH1 0xC0 SWAP1 SWAP4 ADD CALLDATALOAD SWAP3 SWAP2 POP POP JUMP JUMPDEST PUSH0 DUP1 PUSH1 0x40 DUP4 DUP6 SUB SLT ISZERO PUSH2 0x1E40 JUMPI PUSH0 DUP1 REVERT JUMPDEST PUSH2 0x1E49 DUP4 PUSH2 0x1C14 JUMP JUMPDEST SWAP2 POP PUSH2 0x1E57 PUSH1 0x20 DUP5 ADD PUSH2 0x1C14 JUMP JUMPDEST SWAP1 POP SWAP3 POP SWAP3 SWAP1 POP JUMP JUMPDEST PUSH1 0x1 DUP2 DUP2 SHR SWAP1 DUP3 AND DUP1 PUSH2 0x1E74 JUMPI PUSH1 0x7F DUP3 AND SWAP2 POP JUMPDEST PUSH1 0x20 DUP3 LT DUP2 SUB PUSH2 0x1EAB JUMPI PUSH32 0x4E487B7100000000000000000000000000000000000000000000000000000000 PUSH0 MSTORE PUSH1 0x22 PUSH1 0x4 MSTORE PUSH1 0x24 PUSH0 REVERT JUMPDEST POP SWAP2 SWAP1 POP JUMP JUMPDEST PUSH0 PUSH1 0x20 DUP3 DUP5 SUB SLT ISZERO PUSH2 0x1EC1 JUMPI PUSH0 DUP1 REVERT JUMPDEST POP MLOAD SWAP2 SWAP1 POP JUMP JUMPDEST PUSH32 0x4E487B7100000000000000000000000000000000000000000000000000000000 PUSH0 MSTORE PUSH1 0x11 PUSH1 0x4 MSTORE PUSH1 0x24 PUSH0 REVERT JUMPDEST DUP2 DUP2 SUB DUP2 DUP2 GT ISZERO PUSH2 0x4E5 JUMPI PUSH2 0x4E5 PUSH2 0x1EC8 JUMP JUMPDEST DUP1 DUP3 MUL DUP2 ISZERO DUP3 DUP3 DIV DUP5 EQ OR PUSH2 0x4E5 JUMPI PUSH2 0x4E5 PUSH2 0x1EC8 JUMP JUMPDEST PUSH0 DUP3 PUSH2 0x1F52 JUMPI PUSH32 0x4E487B7100000000000000000000000000000000000000000000000000000000 PUSH0 MSTORE PUSH1 0x12 PUSH1 0x4 MSTORE PUSH1 0x24 PUSH0 REVERT JUMPDEST POP DIV SWAP1 JUMP JUMPDEST PUSH0 PUSH1 0x20 DUP3 DUP5 SUB SLT ISZERO PUSH2 0x1F67 JUMPI PUSH0 DUP1 REVERT JUMPDEST DUP2 MLOAD DUP1 ISZERO ISZERO DUP2 EQ PUSH2 0x5CE JUMPI PUSH0 DUP1 REVERT JUMPDEST PUSH32 0x4E487B7100000000000000000000000000000000000000000000000000000000 PUSH0 MSTORE PUSH1 0x21 PUSH1 0x4 MSTORE PUSH1 0x24 PUSH0 REVERT JUMPDEST DUP1 DUP3 ADD DUP1 DUP3 GT ISZERO PUSH2 0x4E5 JUMPI PUSH2 0x4E5 PUSH2 0x1EC8 JUMP JUMPDEST PUSH0 DUP3 MLOAD DUP1 PUSH1 0x20 DUP6 ADD DUP5 MCOPY PUSH0 SWAP3 ADD SWAP2 DUP3 MSTORE POP SWAP2 SWAP1 POP JUMP INVALID LOG2 PUSH5 0x6970667358 0x22 SLT KECCAK256 0xDD BALANCE 0xEA INVALID 0x28 PUSH23 0x7DB5FBDE929B2D62B3A3AA509C801CE5855FF4251DE5A0 0xC9 0x27 0xF6 PUSH5 0x736F6C6343 STOP ADDMOD NOT STOP CALLER "
        },
        "methodIdentifiers": {
          "DOMAIN_SEPARATOR()": "3644e515",
          "allowance(address,address)": "dd62ed3e",
          "approve(address,uint256)": "095ea7b3",
          "balanceOf(address)": "70a08231",
          "decimals()": "313ce567",
          "depositFor(address,uint256)": "2f4f21e2",
          "eip712Domain()": "84b0196e",
          "feeBps()": "24a9d853",
          "feeMax()": "ffbe9f1e",
          "feeMin()": "20a94f94",
          "name()": "06fdde03",
          "nonces(address)": "7ecebe00",
          "owner()": "8da5cb5b",
          "permit(address,address,uint256,uint256,uint8,bytes32,bytes32)": "d505accf",
          "recover(address)": "0cd865ec",
          "renounceOwnership()": "715018a6",
          "setFees(uint16,uint16,uint16)": "534c6bcb",
          "symbol()": "95d89b41",
          "totalSupply()": "18160ddd",
          "transfer(address,uint256)": "a9059cbb",
          "transferFrom(address,address,uint256)": "23b872dd",
          "transferOwnership(address)": "f2fde38b",
          "underlying()": "6f307dc3",
          "withdrawTo(address,uint256)": "205c2878"
        }
      }
    }
  }
}