{
  "_format": "hh-sol-artifact-1",
  "contractName": "Satoshi",
  "sourceName": "contracts/Satoshi.sol",
  "abi": [
    {
      "inputs": [
        {
          "internalType": "contract IERC20",
          "name": "wbtc",
          "type": "address"
        },
        {
          "internalType": "address",
          "name": "initialOwner",
          "type": "address"
        }
      ],
      "stateMutability": "nonpayable",
      "type": "constructor"
    },
    {
      "inputs": [
        {
          "internalType": "address",
          "name": "target",
          "type": "address"
        }
      ],
      "name": "AddressEmptyCode",
      "type": "error"
    },
    {
      "inputs": [
        {
          "internalType": "address",
          "name": "account",
          "type": "address"
        }
      ],
      "name": "AddressInsufficientBalance",
      "type": "error"
    },
    {
      "inputs": [],
      "name": "ECDSAInvalidSignature",
      "type": "error"
    },
    {
      "inputs": [
        {
          "internalType": "uint256",
          "name": "length",
          "type": "uint256"
        }
      ],
      "name": "ECDSAInvalidSignatureLength",
      "type": "error"
    },
    {
      "inputs": [
        {
          "internalType": "bytes32",
          "name": "s",
          "type": "bytes32"
        }
      ],
      "name": "ECDSAInvalidSignatureS",
      "type": "error"
    },
    {
      "inputs": [
        {
          "internalType": "address",
          "name": "spender",
          "type": "address"
        },
        {
          "internalType": "uint256",
          "name": "allowance",
          "type": "uint256"
        },
        {
          "internalType": "uint256",
          "name": "needed",
          "type": "uint256"
        }
      ],
      "name": "ERC20InsufficientAllowance",
      "type": "error"
    },
    {
      "inputs": [
        {
          "internalType": "address",
          "name": "sender",
          "type": "address"
        },
        {
          "internalType": "uint256",
          "name": "balance",
          "type": "uint256"
        },
        {
          "internalType": "uint256",
          "name": "needed",
          "type": "uint256"
        }
      ],
      "name": "ERC20InsufficientBalance",
      "type": "error"
    },
    {
      "inputs": [
        {
          "internalType": "address",
          "name": "approver",
          "type": "address"
        }
      ],
      "name": "ERC20InvalidApprover",
      "type": "error"
    },
    {
      "inputs": [
        {
          "internalType": "address",
          "name": "receiver",
          "type": "address"
        }
      ],
      "name": "ERC20InvalidReceiver",
      "type": "error"
    },
    {
      "inputs": [
        {
          "internalType": "address",
          "name": "sender",
          "type": "address"
        }
      ],
      "name": "ERC20InvalidSender",
      "type": "error"
    },
    {
      "inputs": [
        {
          "internalType": "address",
          "name": "spender",
          "type": "address"
        }
      ],
      "name": "ERC20InvalidSpender",
      "type": "error"
    },
    {
      "inputs": [
        {
          "internalType": "address",
          "name": "token",
          "type": "address"
        }
      ],
      "name": "ERC20InvalidUnderlying",
      "type": "error"
    },
    {
      "inputs": [
        {
          "internalType": "uint256",
          "name": "deadline",
          "type": "uint256"
        }
      ],
      "name": "ERC2612ExpiredSignature",
      "type": "error"
    },
    {
      "inputs": [
        {
          "internalType": "address",
          "name": "signer",
          "type": "address"
        },
        {
          "internalType": "address",
          "name": "owner",
          "type": "address"
        }
      ],
      "name": "ERC2612InvalidSigner",
      "type": "error"
    },
    {
      "inputs": [],
      "name": "FailedInnerCall",
      "type": "error"
    },
    {
      "inputs": [
        {
          "internalType": "address",
          "name": "account",
          "type": "address"
        },
        {
          "internalType": "uint256",
          "name": "currentNonce",
          "type": "uint256"
        }
      ],
      "name": "InvalidAccountNonce",
      "type": "error"
    },
    {
      "inputs": [],
      "name": "InvalidFee",
      "type": "error"
    },
    {
      "inputs": [],
      "name": "InvalidShortString",
      "type": "error"
    },
    {
      "inputs": [
        {
          "internalType": "address",
          "name": "owner",
          "type": "address"
        }
      ],
      "name": "OwnableInvalidOwner",
      "type": "error"
    },
    {
      "inputs": [
        {
          "internalType": "address",
          "name": "account",
          "type": "address"
        }
      ],
      "name": "OwnableUnauthorizedAccount",
      "type": "error"
    },
    {
      "inputs": [
        {
          "internalType": "address",
          "name": "token",
          "type": "address"
        }
      ],
      "name": "SafeERC20FailedOperation",
      "type": "error"
    },
    {
      "inputs": [
        {
          "internalType": "string",
          "name": "str",
          "type": "string"
        }
      ],
      "name": "StringTooLong",
      "type": "error"
    },
    {
      "anonymous": false,
      "inputs": [
        {
          "indexed": true,
          "internalType": "address",
          "name": "owner",
          "type": "address"
        },
        {
          "indexed": true,
          "internalType": "address",
          "name": "spender",
          "type": "address"
        },
        {
          "indexed": false,
          "internalType": "uint256",
          "name": "value",
          "type": "uint256"
        }
      ],
      "name": "Approval",
      "type": "event"
    },
    {
      "anonymous": false,
      "inputs": [],
      "name": "EIP712DomainChanged",
      "type": "event"
    },
    {
      "anonymous": false,
      "inputs": [
        {
          "indexed": true,
          "internalType": "address",
          "name": "previousOwner",
          "type": "address"
        },
        {
          "indexed": true,
          "internalType": "address",
          "name": "newOwner",
          "type": "address"
        }
      ],
      "name": "OwnershipTransferred",
      "type": "event"
    },
    {
      "anonymous": false,
      "inputs": [
        {
          "indexed": false,
          "internalType": "uint16",
          "name": "feeBpsNew",
          "type": "uint16"
        },
        {
          "indexed": false,
          "internalType": "uint16",
          "name": "feeMinNew",
          "type": "uint16"
        },
        {
          "indexed": false,
          "internalType": "uint16",
          "name": "feeMaxNew",
          "type": "uint16"
        }
      ],
      "name": "SetFees",
      "type": "event"
    },
    {
      "anonymous": false,
      "inputs": [
        {
          "indexed": true,
          "internalType": "address",
          "name": "from",
          "type": "address"
        },
        {
          "indexed": true,
          "internalType": "address",
          "name": "to",
          "type": "address"
        },
        {
          "indexed": false,
          "internalType": "uint256",
          "name": "value",
          "type": "uint256"
        }
      ],
      "name": "Transfer",
      "type": "event"
    },
    {
      "inputs": [],
      "name": "DOMAIN_SEPARATOR",
      "outputs": [
        {
          "internalType": "bytes32",
          "name": "",
          "type": "bytes32"
        }
      ],
      "stateMutability": "view",
      "type": "function"
    },
    {
      "inputs": [
        {
          "internalType": "address",
          "name": "owner",
          "type": "address"
        },
        {
          "internalType": "address",
          "name": "spender",
          "type": "address"
        }
      ],
      "name": "allowance",
      "outputs": [
        {
          "internalType": "uint256",
          "name": "",
          "type": "uint256"
        }
      ],
      "stateMutability": "view",
      "type": "function"
    },
    {
      "inputs": [
        {
          "internalType": "address",
          "name": "spender",
          "type": "address"
        },
        {
          "internalType": "uint256",
          "name": "value",
          "type": "uint256"
        }
      ],
      "name": "approve",
      "outputs": [
        {
          "internalType": "bool",
          "name": "",
          "type": "bool"
        }
      ],
      "stateMutability": "nonpayable",
      "type": "function"
    },
    {
      "inputs": [
        {
          "internalType": "address",
          "name": "account",
          "type": "address"
        }
      ],
      "name": "balanceOf",
      "outputs": [
        {
          "internalType": "uint256",
          "name": "",
          "type": "uint256"
        }
      ],
      "stateMutability": "view",
      "type": "function"
    },
    {
      "inputs": [],
      "name": "decimals",
      "outputs": [
        {
          "internalType": "uint8",
          "name": "",
          "type": "uint8"
        }
      ],
      "stateMutability": "view",
      "type": "function"
    },
    {
      "inputs": [
        {
          "internalType": "address",
          "name": "account",
          "type": "address"
        },
        {
          "internalType": "uint256",
          "name": "value",
          "type": "uint256"
        }
      ],
      "name": "depositFor",
      "outputs": [
        {
          "internalType": "bool",
          "name": "",
          "type": "bool"
        }
      ],
      "stateMutability": "nonpayable",
      "type": "function"
    },
    {
      "inputs": [],
      "name": "eip712Domain",
      "outputs": [
        {
          "internalType": "bytes1",
          "name": "fields",
          "type": "bytes1"
        },
        {
          "internalType": "string",
          "name": "name",
          "type": "string"
        },
        {
          "internalType": "string",
          "name": "version",
          "type": "string"
        },
        {
          "internalType": "uint256",
          "name": "chainId",
          "type": "uint256"
        },
        {
          "internalType": "address",
          "name": "verifyingContract",
          "type": "address"
        },
        {
          "internalType": "bytes32",
          "name": "salt",
          "type": "bytes32"
        },
        {
          "internalType": "uint256[]",
          "name": "extensions",
          "type": "uint256[]"
        }
      ],
      "stateMutability": "view",
      "type": "function"
    },
    {
      "inputs": [],
      "name": "name",
      "outputs": [
        {
          "internalType": "string",
          "name": "",
          "type": "string"
        }
      ],
      "stateMutability": "view",
      "type": "function"
    },
    {
      "inputs": [
        {
          "internalType": "address",
          "name": "owner",
          "type": "address"
        }
      ],
      "name": "nonces",
      "outputs": [
        {
          "internalType": "uint256",
          "name": "",
          "type": "uint256"
        }
      ],
      "stateMutability": "view",
      "type": "function"
    },
    {
      "inputs": [],
      "name": "owner",
      "outputs": [
        {
          "internalType": "address",
          "name": "",
          "type": "address"
        }
      ],
      "stateMutability": "view",
      "type": "function"
    },
    {
      "inputs": [
        {
          "internalType": "address",
          "name": "owner",
          "type": "address"
        },
        {
          "internalType": "address",
          "name": "spender",
          "type": "address"
        },
        {
          "internalType": "uint256",
          "name": "value",
          "type": "uint256"
        },
        {
          "internalType": "uint256",
          "name": "deadline",
          "type": "uint256"
        },
        {
          "internalType": "uint8",
          "name": "v",
          "type": "uint8"
        },
        {
          "internalType": "bytes32",
          "name": "r",
          "type": "bytes32"
        },
        {
          "internalType": "bytes32",
          "name": "s",
          "type": "bytes32"
        }
      ],
      "name": "permit",
      "outputs": [],
      "stateMutability": "nonpayable",
      "type": "function"
    },
    {
      "inputs": [
        {
          "internalType": "address",
          "name": "to",
          "type": "address"
        }
      ],
      "name": "recover",
      "outputs": [
        {
          "internalType": "uint256",
          "name": "",
          "type": "uint256"
        }
      ],
      "stateMutability": "nonpayable",
      "type": "function"
    },
    {
      "inputs": [],
      "name": "renounceOwnership",
      "outputs": [],
      "stateMutability": "nonpayable",
      "type": "function"
    },
    {
      "inputs": [
        {
          "internalType": "uint16",
          "name": "feeBpsNew",
          "type": "uint16"
        },
        {
          "internalType": "uint16",
          "name": "feeMinNew",
          "type": "uint16"
        },
        {
          "internalType": "uint16",
          "name": "feeMaxNew",
          "type": "uint16"
        }
      ],
      "name": "setFees",
      "outputs": [],
      "stateMutability": "nonpayable",
      "type": "function"
    },
    {
      "inputs": [],
      "name": "symbol",
      "outputs": [
        {
          "internalType": "string",
          "name": "",
          "type": "string"
        }
      ],
      "stateMutability": "view",
      "type": "function"
    },
    {
      "inputs": [],
      "name": "totalSupply",
      "outputs": [
        {
          "internalType": "uint256",
          "name": "",
          "type": "uint256"
        }
      ],
      "stateMutability": "view",
      "type": "function"
    },
    {
      "inputs": [
        {
          "internalType": "address",
          "name": "to",
          "type": "address"
        },
        {
          "internalType": "uint256",
          "name": "value",
          "type": "uint256"
        }
      ],
      "name": "transfer",
      "outputs": [
        {
          "internalType": "bool",
          "name": "",
          "type": "bool"
        }
      ],
      "stateMutability": "nonpayable",
      "type": "function"
    },
    {
      "inputs": [
        {
          "internalType": "address",
          "name": "from",
          "type": "address"
        },
        {
          "internalType": "address",
          "name": "to",
          "type": "address"
        },
        {
          "internalType": "uint256",
          "name": "value",
          "type": "uint256"
        }
      ],
      "name": "transferFrom",
      "outputs": [
        {
          "internalType": "bool",
          "name": "",
          "type": "bool"
        }
      ],
      "stateMutability": "nonpayable",
      "type": "function"
    },
    {
      "inputs": [
        {
          "internalType": "address",
          "name": "newOwner",
          "type": "address"
        }
      ],
      "name": "transferOwnership",
      "outputs": [],
      "stateMutability": "nonpayable",
      "type": "function"
    },
    {
      "inputs": [],
      "name": "underlying",
      "outputs": [
        {
          "internalType": "contract IERC20",
          "name": "",
          "type": "address"
        }
      ],
      "stateMutability": "view",
      "type": "function"
    },
    {
      "inputs": [
        {
          "internalType": "address",
          "name": "account",
          "type": "address"
        },
        {
          "internalType": "uint256",
          "name": "value",
          "type": "uint256"
        }
      ],
      "name": "withdrawTo",
      "outputs": [
        {
          "internalType": "bool",
          "name": "",
          "type": "bool"
        }
      ],
      "stateMutability": "nonpayable",
      "type": "function"
    }
  ],
  "bytecode": "0x610180604052348015610010575f80fd5b5060405161247538038061247583398101604081905261002f916102c8565b80604051806040016040528060078152602001665361746f73686960c81b81525080604051806040016040528060018152602001603160f81b81525085604051806040016040528060078152602001665361746f73686960c81b815250604051806040016040528060048152602001635341544f60e01b81525081600390816100b89190610398565b5060046100c58282610398565b5050306001600160a01b0383160390506100f95760405163438d6fe360e01b81523060048201526024015b60405180910390fd5b6001600160a01b03166080526101108260056101f1565b6101405261011f8160066101f1565b61016052815160208084019190912061010052815190820120610120524660c0526101ad6101005161012051604080517f8b73c3c69bb8fe3d512ecc4cf759cc79239f7b179b0ffacaa9a75d522b39400f60208201529081019290925260608201524660808201523060a08201525f9060c00160405160208183030381529060405280519060200120905090565b60a05250503060e052506001600160a01b0381166101e057604051631e4fbdf760e01b81525f60048201526024016100f0565b6101e981610223565b5050506104af565b5f60208351101561020c5761020583610274565b905061021d565b816102178482610398565b5060ff90505b92915050565b600880546001600160a01b038381166001600160a01b0319831681179093556040519116919082907f8be0079c531659141344cd1fd0a4f28419497f9722a3daafe3b4186f6b6457e0905f90a35050565b5f80829050601f8151111561029e578260405163305a27a960e01b81526004016100f09190610457565b80516102a98261048c565b179392505050565b6001600160a01b03811681146102c5575f80fd5b50565b5f80604083850312156102d9575f80fd5b82516102e4816102b1565b60208401519092506102f5816102b1565b809150509250929050565b634e487b7160e01b5f52604160045260245ffd5b600181811c9082168061032857607f821691505b60208210810361034657634e487b7160e01b5f52602260045260245ffd5b50919050565b601f82111561039357805f5260205f20601f840160051c810160208510156103715750805b601f840160051c820191505b81811015610390575f815560010161037d565b50505b505050565b81516001600160401b038111156103b1576103b1610300565b6103c5816103bf8454610314565b8461034c565b602080601f8311600181146103f8575f84156103e15750858301515b5f19600386901b1c1916600185901b17855561044f565b5f85815260208120601f198616915b8281101561042657888601518255948401946001909101908401610407565b508582101561044357878501515f19600388901b60f8161c191681555b505060018460011b0185555b505050505050565b602081525f82518060208401528060208501604085015e5f604082850101526040601f19601f83011684010191505092915050565b80516020808301519190811015610346575f1960209190910360031b1b16919050565b60805160a05160c05160e05161010051610120516101405161016051611f5661051f5f395f61110b01525f6110de01525f61101101525f610fe901525f610f4401525f610f6e01525f610f9801525f8181610242015281816104d5015281816105d20152610ba20152611f565ff3fe608060405234801561000f575f80fd5b506004361061016e575f3560e01c80636f307dc3116100d25780638da5cb5b11610088578063d505accf11610063578063d505accf1461032b578063dd62ed3e1461033e578063f2fde38b14610383575f80fd5b80638da5cb5b146102f257806395d89b4114610310578063a9059cbb14610318575f80fd5b8063715018a6116100b8578063715018a6146102bc5780637ecebe00146102c457806384b0196e146102d7575f80fd5b80636f307dc31461024057806370a0823114610287575f80fd5b806323b872dd11610127578063313ce5671161010d578063313ce567146102155780633644e51514610223578063534c6bcb1461022b575f80fd5b806323b872dd146101ef5780632f4f21e214610202575f80fd5b80630cd865ec116101575780630cd865ec146101b357806318160ddd146101d4578063205c2878146101dc575f80fd5b806306fdde0314610172578063095ea7b314610190575b5f80fd5b61017a610396565b6040516101879190611b56565b60405180910390f35b6101a361019e366004611b8b565b610426565b6040519015158152602001610187565b6101c66101c1366004611bb3565b61043f565b604051908152602001610187565b6002546101c6565b6101a36101ea366004611b8b565b610459565b6101a36101fd366004611bcc565b610504565b6101a3610210366004611b8b565b610529565b6040515f8152602001610187565b6101c6610603565b61023e610239366004611c16565b610611565b005b7f00000000000000000000000000000000000000000000000000000000000000005b60405173ffffffffffffffffffffffffffffffffffffffff9091168152602001610187565b6101c6610295366004611bb3565b73ffffffffffffffffffffffffffffffffffffffff165f9081526020819052604090205490565b61023e610841565b6101c66102d2366004611bb3565b610854565b6102df61087e565b6040516101879796959493929190611c56565b60085473ffffffffffffffffffffffffffffffffffffffff16610262565b61017a6108dc565b6101a3610326366004611b8b565b6108eb565b61023e610339366004611d16565b6108f8565b6101c661034c366004611d83565b73ffffffffffffffffffffffffffffffffffffffff9182165f90815260016020908152604080832093909416825291909152205490565b61023e610391366004611bb3565b610aa1565b6060600380546103a590611db4565b80601f01602080910402602001604051908101604052809291908181526020018280546103d190611db4565b801561041c5780601f106103f35761010080835404028352916020019161041c565b820191905f5260205f20905b8154815290600101906020018083116103ff57829003601f168201915b5050505050905090565b5f33610433818585610b04565b60019150505b92915050565b5f610448610b16565b61045182610b69565b90505b919050565b5f3073ffffffffffffffffffffffffffffffffffffffff8416036104c6576040517fec442f0500000000000000000000000000000000000000000000000000000000815273ffffffffffffffffffffffffffffffffffffffff841660048201526024015b60405180910390fd5b6104d03383610c36565b6104fb7f00000000000000000000000000000000000000000000000000000000000000008484610c94565b50600192915050565b5f33610511858285610d15565b61051c858585610de2565b60019150505b9392505050565b5f33308103610566576040517f96c6fd1e0000000000000000000000000000000000000000000000000000000081523060048201526024016104bd565b3073ffffffffffffffffffffffffffffffffffffffff8516036105cd576040517fec442f0500000000000000000000000000000000000000000000000000000000815273ffffffffffffffffffffffffffffffffffffffff851660048201526024016104bd565b6105f97f0000000000000000000000000000000000000000000000000000000000000000823086610e8b565b6104338484610ed1565b5f61060c610f2b565b905090565b610619610b16565b60648361ffff161115610658576040517f58d620b300000000000000000000000000000000000000000000000000000000815260040160405180910390fd5b60018261ffff161115610697576040517f58d620b300000000000000000000000000000000000000000000000000000000815260040160405180910390fd5b6103e88161ffff1611156106d7576040517f58d620b300000000000000000000000000000000000000000000000000000000815260040160405180910390fd5b8061ffff168261ffff161115610719576040517f58d620b300000000000000000000000000000000000000000000000000000000815260040160405180910390fd5b600880547fffffffffffffffff00000000ffffffffffffffffffffffffffffffffffffffff167401000000000000000000000000000000000000000061ffff86811682027fffffffffffffffff0000ffffffffffffffffffffffffffffffffffffffffffff16929092177601000000000000000000000000000000000000000000008684168102919091177fffffffffffff0000ffffffffffffffffffffffffffffffffffffffffffffffff16780100000000000000000000000000000000000000000000000086851681029190911794859055604080519386048516845291850484166020840152909304909116918101919091527fed207bddb8cb5993139af6ecf22c60db0efb4f27a841f54c9bdc9b52223ea5769060600160405180910390a1505050565b610849610b16565b6108525f611061565b565b73ffffffffffffffffffffffffffffffffffffffff81165f90815260076020526040812054610451565b5f6060805f805f606061088f6110d7565b610897611104565b604080515f808252602082019092527f0f000000000000000000000000000000000000000000000000000000000000009b939a50919850469750309650945092509050565b6060600480546103a590611db4565b5f33610433818585610de2565b83421115610935576040517f62791302000000000000000000000000000000000000000000000000000000008152600481018590526024016104bd565b5f7f6e71edae12b1b97f4d1f60370fef10105fa2faae0126114a169c64845d6126c988888861098d8c73ffffffffffffffffffffffffffffffffffffffff165f90815260076020526040902080546001810190915590565b60408051602081019690965273ffffffffffffffffffffffffffffffffffffffff94851690860152929091166060840152608083015260a082015260c0810186905260e0016040516020818303038152906040528051906020012090505f6109f482611131565b90505f610a0382878787611178565b90508973ffffffffffffffffffffffffffffffffffffffff168173ffffffffffffffffffffffffffffffffffffffff1614610a8a576040517f4b800e4600000000000000000000000000000000000000000000000000000000815273ffffffffffffffffffffffffffffffffffffffff80831660048301528b1660248201526044016104bd565b610a958a8a8a610b04565b50505050505050505050565b610aa9610b16565b73ffffffffffffffffffffffffffffffffffffffff8116610af8576040517f1e4fbdf70000000000000000000000000000000000000000000000000000000081525f60048201526024016104bd565b610b0181611061565b50565b610b1183838360016111a4565b505050565b60085473ffffffffffffffffffffffffffffffffffffffff163314610852576040517f118cdaa70000000000000000000000000000000000000000000000000000000081523360048201526024016104bd565b5f80610b7460025490565b6040517f70a082310000000000000000000000000000000000000000000000000000000081523060048201527f000000000000000000000000000000000000000000000000000000000000000073ffffffffffffffffffffffffffffffffffffffff16906370a0823190602401602060405180830381865afa158015610bfc573d5f803e3d5ffd5b505050506040513d601f19601f82011682018060405250810190610c209190611e05565b610c2a9190611e49565b90506104398382610ed1565b73ffffffffffffffffffffffffffffffffffffffff8216610c85576040517f96c6fd1e0000000000000000000000000000000000000000000000000000000081525f60048201526024016104bd565b610c90825f836112e9565b5050565b60405173ffffffffffffffffffffffffffffffffffffffff838116602483015260448201839052610b1191859182169063a9059cbb906064015b604051602081830303815290604052915060e01b6020820180517bffffffffffffffffffffffffffffffffffffffffffffffffffffffff8381831617835250505050611416565b73ffffffffffffffffffffffffffffffffffffffff8381165f908152600160209081526040808320938616835292905220547fffffffffffffffffffffffffffffffffffffffffffffffffffffffffffffffff8114610ddc5781811015610dce576040517ffb8f41b200000000000000000000000000000000000000000000000000000000815273ffffffffffffffffffffffffffffffffffffffff8416600482015260248101829052604481018390526064016104bd565b610ddc84848484035f6111a4565b50505050565b73ffffffffffffffffffffffffffffffffffffffff8316610e31576040517f96c6fd1e0000000000000000000000000000000000000000000000000000000081525f60048201526024016104bd565b73ffffffffffffffffffffffffffffffffffffffff8216610e80576040517fec442f050000000000000000000000000000000000000000000000000000000081525f60048201526024016104bd565b610b118383836112e9565b60405173ffffffffffffffffffffffffffffffffffffffff8481166024830152838116604483015260648201839052610ddc9186918216906323b872dd90608401610cce565b73ffffffffffffffffffffffffffffffffffffffff8216610f20576040517fec442f050000000000000000000000000000000000000000000000000000000081525f60048201526024016104bd565b610c905f83836112e9565b5f3073ffffffffffffffffffffffffffffffffffffffff7f000000000000000000000000000000000000000000000000000000000000000016148015610f9057507f000000000000000000000000000000000000000000000000000000000000000046145b15610fba57507f000000000000000000000000000000000000000000000000000000000000000090565b61060c604080517f8b73c3c69bb8fe3d512ecc4cf759cc79239f7b179b0ffacaa9a75d522b39400f60208201527f0000000000000000000000000000000000000000000000000000000000000000918101919091527f000000000000000000000000000000000000000000000000000000000000000060608201524660808201523060a08201525f9060c00160405160208183030381529060405280519060200120905090565b6008805473ffffffffffffffffffffffffffffffffffffffff8381167fffffffffffffffffffffffff0000000000000000000000000000000000000000831681179093556040519116919082907f8be0079c531659141344cd1fd0a4f28419497f9722a3daafe3b4186f6b6457e0905f90a35050565b606061060c7f000000000000000000000000000000000000000000000000000000000000000060056114aa565b606061060c7f000000000000000000000000000000000000000000000000000000000000000060066114aa565b5f61045161113d610f2b565b836040517f19010000000000000000000000000000000000000000000000000000000000008152600281019290925260228201526042902090565b5f805f8061118888888888611553565b9250925092506111988282611646565b50909695505050505050565b73ffffffffffffffffffffffffffffffffffffffff84166111f3576040517fe602df050000000000000000000000000000000000000000000000000000000081525f60048201526024016104bd565b73ffffffffffffffffffffffffffffffffffffffff8316611242576040517f94280d620000000000000000000000000000000000000000000000000000000081525f60048201526024016104bd565b73ffffffffffffffffffffffffffffffffffffffff8085165f9081526001602090815260408083209387168352929052208290558015610ddc578273ffffffffffffffffffffffffffffffffffffffff168473ffffffffffffffffffffffffffffffffffffffff167f8c5be1e5ebec7d5bd14f71427d1e84f3dd0314c0f7b2291e5b200ac8c7c3b925846040516112db91815260200190565b60405180910390a350505050565b73ffffffffffffffffffffffffffffffffffffffff83161580611320575073ffffffffffffffffffffffffffffffffffffffff8216155b1561133057610b11838383611749565b60085461ffff74010000000000000000000000000000000000000000820481169176010000000000000000000000000000000000000000000081048216917801000000000000000000000000000000000000000000000000909104165f61271061139a8587611e5c565b6113a49190611e73565b9050828110156113b55750816113c0565b818111156113c05750805b8481106113ca57505f5b6113de87876113d98489611e49565b611749565b801561140d5761140d8761140760085473ffffffffffffffffffffffffffffffffffffffff1690565b83611749565b50505050505050565b5f61143773ffffffffffffffffffffffffffffffffffffffff8416836118f0565b905080515f1415801561145b5750808060200190518101906114599190611eab565b155b15610b11576040517f5274afe700000000000000000000000000000000000000000000000000000000815273ffffffffffffffffffffffffffffffffffffffff841660048201526024016104bd565b606060ff83146114c4576114bd836118fd565b9050610439565b8180546114d090611db4565b80601f01602080910402602001604051908101604052809291908181526020018280546114fc90611db4565b80156115475780601f1061151e57610100808354040283529160200191611547565b820191905f5260205f20905b81548152906001019060200180831161152a57829003601f168201915b50505050509050610439565b5f80807f7fffffffffffffffffffffffffffffff5d576e7357a4501ddfe92f46681b20a084111561158c57505f9150600390508261163c565b604080515f808252602082018084528a905260ff891692820192909252606081018790526080810186905260019060a0016020604051602081039080840390855afa1580156115dd573d5f803e3d5ffd5b50506040517fffffffffffffffffffffffffffffffffffffffffffffffffffffffffffffffe0015191505073ffffffffffffffffffffffffffffffffffffffff811661163357505f92506001915082905061163c565b92505f91508190505b9450945094915050565b5f82600381111561165957611659611eca565b03611662575050565b600182600381111561167657611676611eca565b036116ad576040517ff645eedf00000000000000000000000000000000000000000000000000000000815260040160405180910390fd5b60028260038111156116c1576116c1611eca565b036116fb576040517ffce698f7000000000000000000000000000000000000000000000000000000008152600481018290526024016104bd565b600382600381111561170f5761170f611eca565b03610c90576040517fd78bce0c000000000000000000000000000000000000000000000000000000008152600481018290526024016104bd565b73ffffffffffffffffffffffffffffffffffffffff8316611780578060025f8282546117759190611ef7565b909155506118309050565b73ffffffffffffffffffffffffffffffffffffffff83165f9081526020819052604090205481811015611805576040517fe450d38c00000000000000000000000000000000000000000000000000000000815273ffffffffffffffffffffffffffffffffffffffff8516600482015260248101829052604481018390526064016104bd565b73ffffffffffffffffffffffffffffffffffffffff84165f9081526020819052604090209082900390555b73ffffffffffffffffffffffffffffffffffffffff821661185957600280548290039055611884565b73ffffffffffffffffffffffffffffffffffffffff82165f9081526020819052604090208054820190555b8173ffffffffffffffffffffffffffffffffffffffff168373ffffffffffffffffffffffffffffffffffffffff167fddf252ad1be2c89b69c2b068fc378daa952ba7f163c4a11628f55a4df523b3ef836040516118e391815260200190565b60405180910390a3505050565b606061052283835f61193a565b60605f611909836119f9565b6040805160208082528183019092529192505f91906020820181803683375050509182525060208101929092525090565b606081471015611978576040517fcd7860590000000000000000000000000000000000000000000000000000000081523060048201526024016104bd565b5f808573ffffffffffffffffffffffffffffffffffffffff1684866040516119a09190611f0a565b5f6040518083038185875af1925050503d805f81146119da576040519150601f19603f3d011682016040523d82523d5f602084013e6119df565b606091505b50915091506119ef868383611a39565b9695505050505050565b5f60ff8216601f811115610439576040517fb3512b0c00000000000000000000000000000000000000000000000000000000815260040160405180910390fd5b606082611a4e57611a4982611ac8565b610522565b8151158015611a72575073ffffffffffffffffffffffffffffffffffffffff84163b155b15611ac1576040517f9996b31500000000000000000000000000000000000000000000000000000000815273ffffffffffffffffffffffffffffffffffffffff851660048201526024016104bd565b5080610522565b805115611ad85780518082602001fd5b6040517f1425ea4200000000000000000000000000000000000000000000000000000000815260040160405180910390fd5b5f81518084528060208401602086015e5f6020828601015260207fffffffffffffffffffffffffffffffffffffffffffffffffffffffffffffffe0601f83011685010191505092915050565b602081525f6105226020830184611b0a565b803573ffffffffffffffffffffffffffffffffffffffff81168114610454575f80fd5b5f8060408385031215611b9c575f80fd5b611ba583611b68565b946020939093013593505050565b5f60208284031215611bc3575f80fd5b61052282611b68565b5f805f60608486031215611bde575f80fd5b611be784611b68565b9250611bf560208501611b68565b9150604084013590509250925092565b803561ffff81168114610454575f80fd5b5f805f60608486031215611c28575f80fd5b611c3184611c05565b9250611c3f60208501611c05565b9150611c4d60408501611c05565b90509250925092565b7fff00000000000000000000000000000000000000000000000000000000000000881681525f602060e06020840152611c9260e084018a611b0a565b8381036040850152611ca4818a611b0a565b6060850189905273ffffffffffffffffffffffffffffffffffffffff8816608086015260a0850187905284810360c0860152855180825260208088019350909101905f5b81811015611d0457835183529284019291840191600101611ce8565b50909c9b505050505050505050505050565b5f805f805f805f60e0888a031215611d2c575f80fd5b611d3588611b68565b9650611d4360208901611b68565b95506040880135945060608801359350608088013560ff81168114611d66575f80fd5b9699959850939692959460a0840135945060c09093013592915050565b5f8060408385031215611d94575f80fd5b611d9d83611b68565b9150611dab60208401611b68565b90509250929050565b600181811c90821680611dc857607f821691505b602082108103611dff577f4e487b71000000000000000000000000000000000000000000000000000000005f52602260045260245ffd5b50919050565b5f60208284031215611e15575f80fd5b5051919050565b7f4e487b71000000000000000000000000000000000000000000000000000000005f52601160045260245ffd5b8181038181111561043957610439611e1c565b808202811582820484141761043957610439611e1c565b5f82611ea6577f4e487b71000000000000000000000000000000000000000000000000000000005f52601260045260245ffd5b500490565b5f60208284031215611ebb575f80fd5b81518015158114610522575f80fd5b7f4e487b71000000000000000000000000000000000000000000000000000000005f52602160045260245ffd5b8082018082111561043957610439611e1c565b5f82518060208501845e5f92019182525091905056fea26469706673582212204f53a4180962866791eb10dd738834c6a84c9138333d7771a24b5c2545b8feec64736f6c63430008190033",
  "linkReferences": {},
  "deployedLinkReferences": {}
}